{
  "_format": "hh-sol-artifact-1",
  "contractName": "FHELuckySpinV2",
  "sourceName": "src/FHELuckySpinV2.sol",
  "abi": [
    {
      "inputs": [
        {
          "internalType": "address",
          "name": "_prizeManager",
          "type": "address"
        },
        {
          "internalType": "address",
          "name": "_spinManager",
          "type": "address"
        },
        {
          "internalType": "address",
          "name": "_userRecords",
          "type": "address"
        },
        {
          "internalType": "address",
          "name": "_rewardDistributor",
          "type": "address"
        }
      ],
      "stateMutability": "nonpayable",
      "type": "constructor"
    },
    {
      "inputs": [],
      "name": "AlreadyClaimed",
      "type": "error"
    },
    {
      "inputs": [],
      "name": "DailyLimitExceeded",
      "type": "error"
    },
    {
      "inputs": [],
      "name": "InsufficientPayment",
      "type": "error"
    },
    {
      "inputs": [],
      "name": "InvalidDecryption",
      "type": "error"
    },
    {
      "inputs": [],
      "name": "InvalidSpinId",
      "type": "error"
    },
    {
      "inputs": [
        {
          "internalType": "address",
          "name": "owner",
          "type": "address"
        }
      ],
      "name": "OwnableInvalidOwner",
      "type": "error"
    },
    {
      "inputs": [
        {
          "internalType": "address",
          "name": "account",
          "type": "address"
        }
      ],
      "name": "OwnableUnauthorizedAccount",
      "type": "error"
    },
    {
      "inputs": [],
      "name": "ReentrancyGuardReentrantCall",
      "type": "error"
    },
    {
      "anonymous": false,
      "inputs": [
        {
          "indexed": true,
          "internalType": "address",
          "name": "previousOwner",
          "type": "address"
        },
        {
          "indexed": true,
          "internalType": "address",
          "name": "newOwner",
          "type": "address"
        }
      ],
      "name": "OwnershipTransferred",
      "type": "event"
    },
    {
      "anonymous": false,
      "inputs": [
        {
          "indexed": true,
          "internalType": "address",
          "name": "user",
          "type": "address"
        },
        {
          "indexed": false,
          "internalType": "uint256",
          "name": "spinId",
          "type": "uint256"
        },
        {
          "indexed": false,
          "internalType": "string",
          "name": "prizeName",
          "type": "string"
        },
        {
          "indexed": false,
          "internalType": "uint256",
          "name": "prizeValue",
          "type": "uint256"
        }
      ],
      "name": "PrizeClaimed",
      "type": "event"
    },
    {
      "anonymous": false,
      "inputs": [
        {
          "indexed": true,
          "internalType": "address",
          "name": "user",
          "type": "address"
        },
        {
          "indexed": false,
          "internalType": "uint256",
          "name": "spinId",
          "type": "uint256"
        },
        {
          "indexed": false,
          "internalType": "uint256",
          "name": "timestamp",
          "type": "uint256"
        }
      ],
      "name": "SpinExecuted",
      "type": "event"
    },
    {
      "inputs": [
        {
          "internalType": "string",
          "name": "name",
          "type": "string"
        },
        {
          "internalType": "uint256",
          "name": "value",
          "type": "uint256"
        },
        {
          "internalType": "enum IPrizeManager.PrizeType",
          "name": "prizeType",
          "type": "uint8"
        },
        {
          "internalType": "uint8",
          "name": "probability",
          "type": "uint8"
        }
      ],
      "name": "addPrize",
      "outputs": [],
      "stateMutability": "nonpayable",
      "type": "function"
    },
    {
      "inputs": [
        {
          "internalType": "uint256",
          "name": "spinId",
          "type": "uint256"
        },
        {
          "internalType": "uint8",
          "name": "decryptedResult",
          "type": "uint8"
        }
      ],
      "name": "claimPrize",
      "outputs": [],
      "stateMutability": "nonpayable",
      "type": "function"
    },
    {
      "inputs": [],
      "name": "depositFunds",
      "outputs": [],
      "stateMutability": "payable",
      "type": "function"
    },
    {
      "inputs": [],
      "name": "getContractBalance",
      "outputs": [
        {
          "internalType": "uint256",
          "name": "",
          "type": "uint256"
        }
      ],
      "stateMutability": "view",
      "type": "function"
    },
    {
      "inputs": [],
      "name": "getGlobalStats",
      "outputs": [
        {
          "internalType": "uint256",
          "name": "totalPointsDistributed",
          "type": "uint256"
        },
        {
          "internalType": "uint256",
          "name": "totalEthDistributed",
          "type": "uint256"
        },
        {
          "internalType": "uint256",
          "name": "contractBalance",
          "type": "uint256"
        },
        {
          "internalType": "uint256",
          "name": "spinCost",
          "type": "uint256"
        }
      ],
      "stateMutability": "view",
      "type": "function"
    },
    {
      "inputs": [
        {
          "internalType": "uint256",
          "name": "prizeId",
          "type": "uint256"
        }
      ],
      "name": "getPrize",
      "outputs": [
        {
          "components": [
            {
              "internalType": "string",
              "name": "name",
              "type": "string"
            },
            {
              "internalType": "uint256",
              "name": "value",
              "type": "uint256"
            },
            {
              "internalType": "enum IPrizeManager.PrizeType",
              "name": "prizeType",
              "type": "uint8"
            },
            {
              "internalType": "uint8",
              "name": "probability",
              "type": "uint8"
            },
            {
              "internalType": "bool",
              "name": "active",
              "type": "bool"
            }
          ],
          "internalType": "struct IPrizeManager.Prize",
          "name": "",
          "type": "tuple"
        }
      ],
      "stateMutability": "view",
      "type": "function"
    },
    {
      "inputs": [],
      "name": "getPrizeCount",
      "outputs": [
        {
          "internalType": "uint256",
          "name": "",
          "type": "uint256"
        }
      ],
      "stateMutability": "view",
      "type": "function"
    },
    {
      "inputs": [
        {
          "internalType": "address",
          "name": "user",
          "type": "address"
        }
      ],
      "name": "getRemainingSpins",
      "outputs": [
        {
          "internalType": "uint256",
          "name": "",
          "type": "uint256"
        }
      ],
      "stateMutability": "view",
      "type": "function"
    },
    {
      "inputs": [
        {
          "internalType": "address",
          "name": "user",
          "type": "address"
        },
        {
          "internalType": "uint256",
          "name": "spinId",
          "type": "uint256"
        }
      ],
      "name": "getSpinRecord",
      "outputs": [
        {
          "components": [
            {
              "internalType": "uint256",
              "name": "timestamp",
              "type": "uint256"
            },
            {
              "internalType": "euint8",
              "name": "result",
              "type": "bytes32"
            },
            {
              "internalType": "bool",
              "name": "claimed",
              "type": "bool"
            },
            {
              "internalType": "uint256",
              "name": "prizeValue",
              "type": "uint256"
            },
            {
              "internalType": "enum IUserRecords.PrizeType",
              "name": "prizeType",
              "type": "uint8"
            },
            {
              "internalType": "string",
              "name": "prizeName",
              "type": "string"
            }
          ],
          "internalType": "struct IUserRecords.SpinRecord",
          "name": "",
          "type": "tuple"
        }
      ],
      "stateMutability": "view",
      "type": "function"
    },
    {
      "inputs": [
        {
          "internalType": "address",
          "name": "user",
          "type": "address"
        }
      ],
      "name": "getUserPoints",
      "outputs": [
        {
          "internalType": "uint256",
          "name": "",
          "type": "uint256"
        }
      ],
      "stateMutability": "view",
      "type": "function"
    },
    {
      "inputs": [
        {
          "internalType": "address",
          "name": "user",
          "type": "address"
        }
      ],
      "name": "getUserSpinCount",
      "outputs": [
        {
          "internalType": "uint256",
          "name": "",
          "type": "uint256"
        }
      ],
      "stateMutability": "view",
      "type": "function"
    },
    {
      "inputs": [
        {
          "internalType": "address",
          "name": "user",
          "type": "address"
        }
      ],
      "name": "getUserSpinHistory",
      "outputs": [
        {
          "internalType": "uint256[]",
          "name": "timestamps",
          "type": "uint256[]"
        },
        {
          "internalType": "string[]",
          "name": "prizeNames",
          "type": "string[]"
        },
        {
          "internalType": "uint256[]",
          "name": "prizeValues",
          "type": "uint256[]"
        },
        {
          "internalType": "bool[]",
          "name": "claimed",
          "type": "bool[]"
        }
      ],
      "stateMutability": "view",
      "type": "function"
    },
    {
      "inputs": [
        {
          "internalType": "address",
          "name": "user",
          "type": "address"
        }
      ],
      "name": "getUserTotalEthWon",
      "outputs": [
        {
          "internalType": "uint256",
          "name": "",
          "type": "uint256"
        }
      ],
      "stateMutability": "view",
      "type": "function"
    },
    {
      "inputs": [],
      "name": "owner",
      "outputs": [
        {
          "internalType": "address",
          "name": "",
          "type": "address"
        }
      ],
      "stateMutability": "view",
      "type": "function"
    },
    {
      "inputs": [],
      "name": "prizeManager",
      "outputs": [
        {
          "internalType": "contract IPrizeManager",
          "name": "",
          "type": "address"
        }
      ],
      "stateMutability": "view",
      "type": "function"
    },
    {
      "inputs": [],
      "name": "protocolId",
      "outputs": [
        {
          "internalType": "uint256",
          "name": "",
          "type": "uint256"
        }
      ],
      "stateMutability": "pure",
      "type": "function"
    },
    {
      "inputs": [],
      "name": "renounceOwnership",
      "outputs": [],
      "stateMutability": "nonpayable",
      "type": "function"
    },
    {
      "inputs": [],
      "name": "rewardDistributor",
      "outputs": [
        {
          "internalType": "contract IRewardDistributor",
          "name": "",
          "type": "address"
        }
      ],
      "stateMutability": "view",
      "type": "function"
    },
    {
      "inputs": [
        {
          "internalType": "uint256",
          "name": "prizeId",
          "type": "uint256"
        },
        {
          "internalType": "bool",
          "name": "active",
          "type": "bool"
        }
      ],
      "name": "setPrizeActive",
      "outputs": [],
      "stateMutability": "nonpayable",
      "type": "function"
    },
    {
      "inputs": [
        {
          "internalType": "externalEuint8",
          "name": "encryptedRandom",
          "type": "bytes32"
        },
        {
          "internalType": "bytes",
          "name": "proof",
          "type": "bytes"
        }
      ],
      "name": "spin",
      "outputs": [],
      "stateMutability": "payable",
      "type": "function"
    },
    {
      "inputs": [],
      "name": "spinManager",
      "outputs": [
        {
          "internalType": "contract ISpinManager",
          "name": "",
          "type": "address"
        }
      ],
      "stateMutability": "view",
      "type": "function"
    },
    {
      "inputs": [
        {
          "internalType": "address",
          "name": "newOwner",
          "type": "address"
        }
      ],
      "name": "transferOwnership",
      "outputs": [],
      "stateMutability": "nonpayable",
      "type": "function"
    },
    {
      "inputs": [
        {
          "internalType": "uint256",
          "name": "prizeId",
          "type": "uint256"
        },
        {
          "internalType": "string",
          "name": "name",
          "type": "string"
        },
        {
          "internalType": "uint256",
          "name": "value",
          "type": "uint256"
        },
        {
          "internalType": "enum IPrizeManager.PrizeType",
          "name": "prizeType",
          "type": "uint8"
        },
        {
          "internalType": "uint8",
          "name": "probability",
          "type": "uint8"
        }
      ],
      "name": "updatePrize",
      "outputs": [],
      "stateMutability": "nonpayable",
      "type": "function"
    },
    {
      "inputs": [],
      "name": "userRecords",
      "outputs": [
        {
          "internalType": "contract IUserRecords",
          "name": "",
          "type": "address"
        }
      ],
      "stateMutability": "view",
      "type": "function"
    },
    {
      "inputs": [
        {
          "internalType": "uint256",
          "name": "amount",
          "type": "uint256"
        }
      ],
      "name": "withdrawFunds",
      "outputs": [],
      "stateMutability": "nonpayable",
      "type": "function"
    }
  ],
  "bytecode": "0x608060405234801561000f575f5ffd5b506040516121f93803806121f983398101604081905261002e916102a1565b336101a96100cd604080516080810182525f808252602082018190529181018290526060810191909152506040805160808101825273687820221192c5b662b25367f70076a37bc79b6c815273848b0066793bcc60346da1f49049357399b8d595602082015273a02cda4ca3a71d7c46997716f4283aa851c2881291810191909152731364cbbf2cdf5032c47d8226a6f6fbd2afcdacac606082015290565b80517f9e7b61f58c47dc699ac88507c4f5bb9f121c03808c5676a8078fe583e464970080546001600160a01b03199081166001600160a01b039384161790915560208301517f9e7b61f58c47dc699ac88507c4f5bb9f121c03808c5676a8078fe583e46497018054831691841691909117905560408301517f9e7b61f58c47dc699ac88507c4f5bb9f121c03808c5676a8078fe583e46497028054831691841691909117905560608301517f9e7b61f58c47dc699ac88507c4f5bb9f121c03808c5676a8078fe583e46497038054909216921691909117905550565b6001600160a01b0381166101d657604051631e4fbdf760e01b81525f600482015260240160405180910390fd5b6101df81610237565b5060018055600280546001600160a01b039586166001600160a01b03199182161790915560038054948616948216949094179093556004805492851692841692909217909155600580549190931691161790556102f2565b5f80546001600160a01b038381166001600160a01b0319831681178455604051919092169283917f8be0079c531659141344cd1fd0a4f28419497f9722a3daafe3b4186f6b6457e09190a35050565b80516001600160a01b038116811461029c575f5ffd5b919050565b5f5f5f5f608085870312156102b4575f5ffd5b6102bd85610286565b93506102cb60208601610286565b92506102d960408601610286565b91506102e760608601610286565b905092959194509250565b611efa806102ff5f395ff3fe608060405260043610610161575f3560e01c80639554679f116100cd578063c9ba6b5011610087578063dd777a5311610062578063dd777a5314610421578063e2c41dbc14610440578063f2fde38b14610448578063f3e0e7f214610467575f5ffd5b8063c9ba6b50146103c2578063cecbfa9d146103ee578063da1f12ab1461040d575f5ffd5b80639554679f146102eb578063a1099bf21461030a578063acc2166a14610336578063aeefe31f14610355578063aefd3cf614610374578063b14c048414610393575f5ffd5b806365ed87811161011e57806365ed8781146102415780636b4169c3146102605780636f9fb98a14610294578063715018a6146102a857806383b39296146102bc5780638da5cb5b146102cf575f5ffd5b8063155dd5ee146101655780633d6f4369146101865780634162fb99146101c25780635bdfd2a9146101e1578063632c008614610203578063656c0ead14610222575b5f5ffd5b348015610170575f5ffd5b5061018461017f366004611648565b610486565b005b348015610191575f5ffd5b506002546101a5906001600160a01b031681565b6040516001600160a01b0390911681526020015b60405180910390f35b3480156101cd575f5ffd5b506101846101dc36600461166d565b6104ea565b3480156101ec575f5ffd5b506101f561078c565b6040519081526020016101b9565b34801561020e575f5ffd5b506004546101a5906001600160a01b031681565b34801561022d575f5ffd5b506101f561023c3660046116b6565b6107fc565b34801561024c575f5ffd5b506003546101a5906001600160a01b031681565b34801561026b575f5ffd5b50610274610874565b6040805194855260208501939093529183015260608201526080016101b9565b34801561029f575f5ffd5b506101f5610a56565b3480156102b3575f5ffd5b50610184610a9d565b6101846102ca366004611713565b610ab0565b3480156102da575f5ffd5b505f546001600160a01b03166101a5565b3480156102f6575f5ffd5b50610184610305366004611767565b610e11565b348015610315575f5ffd5b50610329610324366004611648565b610e7e565b6040516101b991906117e8565b348015610341575f5ffd5b506005546101a5906001600160a01b031681565b348015610360575f5ffd5b506101f561036f3660046116b6565b610ef3565b34801561037f575f5ffd5b5061018461038e366004611853565b610f25565b34801561039e575f5ffd5b506103b26103ad3660046116b6565b610f9c565b6040516101b99493929190611935565b3480156103cd575f5ffd5b506103e16103dc3660046119d2565b611256565b6040516101b991906119fa565b3480156103f9575f5ffd5b506101f56104083660046116b6565b6112dc565b348015610418575f5ffd5b506127116101f5565b34801561042c575f5ffd5b5061018461043b366004611a5b565b61130e565b610184611382565b348015610453575f5ffd5b506101846104623660046116b6565b611416565b348015610472575f5ffd5b506101f56104813660046116b6565b611450565b61048e611487565b600554604051630aaeeaf760e11b8152600481018390526001600160a01b039091169063155dd5ee906024015f604051808303815f87803b1580156104d1575f5ffd5b505af11580156104e3573d5f5f3e3d5ffd5b5050505050565b6104f26114b3565b60048054604051630c9ba6b560e41b81523392810192909252602482018490525f916001600160a01b039091169063c9ba6b50906044015f60405180830381865afa158015610543573d5f5f3e3d5ffd5b505050506040513d5f823e601f3d908101601f1916820160405261056a9190810190611bb0565b905080604001511561058f57604051630c8d9eab60e31b815260040160405180910390fd5b600254604051635084cdf960e11b815260ff841660048201525f916001600160a01b03169063a1099bf2906024015f60405180830381865afa1580156105d7573d5f5f3e3d5ffd5b505050506040513d5f823e601f3d908101601f191682016040526105fe9190810190611c5e565b600454602082015160408301519293506001600160a01b039091169163ae9d90649133918891906001811115610636576106366117b8565b60ff16600181111561064a5761064a6117b8565b86516040516001600160e01b031960e088901b168152610671959493929190600401611d10565b5f604051808303815f87803b158015610688575f5ffd5b505af115801561069a573d5f5f3e3d5ffd5b5050505060208101511561073a57600554602082015160408301516001600160a01b039092169163f8bea4f191339160018111156106da576106da6117b8565b60ff1660018111156106ee576106ee6117b8565b6040518463ffffffff1660e01b815260040161070c93929190611d4e565b5f604051808303815f87803b158015610723575f5ffd5b505af1158015610735573d5f5f3e3d5ffd5b505050505b8051602082015160405133927f7111f10cabb0ceadf178b41419cafb6f2b9e6ee43bedb68fd52bd03472b001c8926107759289929190611d7c565b60405180910390a2505061078860018055565b5050565b60025460408051635bdfd2a960e01b815290515f926001600160a01b031691635bdfd2a99160048083019260209291908290030181865afa1580156107d3573d5f5f3e3d5ffd5b505050506040513d601f19601f820116820180604052508101906107f79190611da4565b905090565b6004805460405163656c0ead60e01b81526001600160a01b03848116938201939093525f929091169063656c0ead906024015b602060405180830381865afa15801561084a573d5f5f3e3d5ffd5b505050506040513d601f19601f8201168201806040525081019061086e9190611da4565b92915050565b5f5f5f5f60055f9054906101000a90046001600160a01b03166001600160a01b03166328a6f29d6040518163ffffffff1660e01b8152600401602060405180830381865afa1580156108c8573d5f5f3e3d5ffd5b505050506040513d601f19601f820116820180604052508101906108ec9190611da4565b60055f9054906101000a90046001600160a01b03166001600160a01b0316631f14ed496040518163ffffffff1660e01b8152600401602060405180830381865afa15801561093c573d5f5f3e3d5ffd5b505050506040513d601f19601f820116820180604052508101906109609190611da4565b60055f9054906101000a90046001600160a01b03166001600160a01b0316636f9fb98a6040518163ffffffff1660e01b8152600401602060405180830381865afa1580156109b0573d5f5f3e3d5ffd5b505050506040513d601f19601f820116820180604052508101906109d49190611da4565b60035f9054906101000a90046001600160a01b03166001600160a01b031663e65adca16040518163ffffffff1660e01b8152600401602060405180830381865afa158015610a24573d5f5f3e3d5ffd5b505050506040513d601f19601f82011682018060405250810190610a489190611da4565b935093509350935090919293565b600554604080516337cfdcc560e11b815290515f926001600160a01b031691636f9fb98a9160048083019260209291908290030181865afa1580156107d3573d5f5f3e3d5ffd5b610aa5611487565b610aae5f6114dd565b565b610ab86114b3565b6003546040805163e65adca160e01b815290515f926001600160a01b03169163e65adca19160048083019260209291908290030181865afa158015610aff573d5f5f3e3d5ffd5b505050506040513d601f19601f82011682018060405250810190610b239190611da4565b9050803414610b455760405163cd1c886760e01b815260040160405180910390fd5b60048054604051639c6b85bb60e01b815233928101929092526001600160a01b031690639c6b85bb90602401602060405180830381865afa158015610b8c573d5f5f3e3d5ffd5b505050506040513d601f19601f82011682018060405250810190610bb09190611dbb565b610bcd57604051630652f4c560e21b815260040160405180910390fd5b60035460405163350534ab60e21b81525f916001600160a01b03169063d414d2ac90610c03903390899089908990600401611dfe565b6020604051808303815f875af1158015610c1f573d5f5f3e3d5ffd5b505050506040513d601f19601f82011682018060405250810190610c439190611da4565b9050610c4f813361152c565b506004805460405163e5529dff60e01b81523392810192909252602482018390525f916001600160a01b039091169063e5529dff906044016020604051808303815f875af1158015610ca3573d5f5f3e3d5ffd5b505050506040513d601f19601f82011682018060405250810190610cc79190611da4565b60048054604051630a6ebad760e01b815233928101929092529192506001600160a01b0390911690630a6ebad7906024015f604051808303815f87803b158015610d0f575f5ffd5b505af1158015610d21573d5f5f3e3d5ffd5b50506005546040515f93506001600160a01b03909116915034908381818185875af1925050503d805f8114610d71576040519150601f19603f3d011682016040523d82523d5f602084013e610d76565b606091505b5050905080610dc55760405162461bcd60e51b815260206004820152601660248201527514185e5b595b9d08199bdc9dd85c990819985a5b195960521b60448201526064015b60405180910390fd5b6040805183815242602082015233917fd9cb43d92bfc73eded095760ce8a20dfdc2feec2ccb7ece3a582c60b6bb0d18a910160405180910390a250505050610e0c60018055565b505050565b610e19611487565b600254604051639554679f60e01b81526004810184905282151560248201526001600160a01b0390911690639554679f906044015f604051808303815f87803b158015610e64575f5ffd5b505af1158015610e76573d5f5f3e3d5ffd5b505050505050565b610e866115c7565b600254604051635084cdf960e11b8152600481018490526001600160a01b039091169063a1099bf2906024015f60405180830381865afa158015610ecc573d5f5f3e3d5ffd5b505050506040513d5f823e601f3d908101601f1916820160405261086e9190810190611c5e565b60055460405163aeefe31f60e01b81526001600160a01b0383811660048301525f92169063aeefe31f9060240161082f565b610f2d611487565b60025460405163577e9e7b60e11b81526001600160a01b039091169063aefd3cf690610f6790899089908990899089908990600401611e2f565b5f604051808303815f87803b158015610f7e575f5ffd5b505af1158015610f90573d5f5f3e3d5ffd5b50505050505050505050565b6004805460405163656c0ead60e01b81526001600160a01b03848116938201939093526060928392839283925f92169063656c0ead90602401602060405180830381865afa158015610ff0573d5f5f3e3d5ffd5b505050506040513d601f19601f820116820180604052508101906110149190611da4565b9050806001600160401b0381111561102e5761102e611ac9565b604051908082528060200260200182016040528015611057578160200160208202803683370190505b509450806001600160401b0381111561107257611072611ac9565b6040519080825280602002602001820160405280156110a557816020015b60608152602001906001900390816110905790505b509350806001600160401b038111156110c0576110c0611ac9565b6040519080825280602002602001820160405280156110e9578160200160208202803683370190505b509250806001600160401b0381111561110457611104611ac9565b60405190808252806020026020018201604052801561112d578160200160208202803683370190505b5091505f5b8181101561124d5760048054604051630c9ba6b560e41b81526001600160a01b038a811693820193909352602481018490525f929091169063c9ba6b50906044015f60405180830381865afa15801561118d573d5f5f3e3d5ffd5b505050506040513d5f823e601f3d908101601f191682016040526111b49190810190611bb0565b9050805f01518783815181106111cc576111cc611e73565b6020026020010181815250508060a001518683815181106111ef576111ef611e73565b6020026020010181905250806060015185838151811061121157611211611e73565b602002602001018181525050806040015184838151811061123457611234611e73565b9115156020928302919091019091015250600101611132565b50509193509193565b61125e611604565b60048054604051630c9ba6b560e41b81526001600160a01b03868116938201939093526024810185905291169063c9ba6b50906044015f60405180830381865afa1580156112ae573d5f5f3e3d5ffd5b505050506040513d5f823e601f3d908101601f191682016040526112d59190810190611bb0565b9392505050565b60055460405163cecbfa9d60e01b81526001600160a01b0383811660048301525f92169063cecbfa9d9060240161082f565b611316611487565b60025460405163dd777a5360e01b81526001600160a01b039091169063dd777a539061134e9088908890889088908890600401611e87565b5f604051808303815f87803b158015611365575f5ffd5b505af1158015611377573d5f5f3e3d5ffd5b505050505050505050565b6005546040515f916001600160a01b03169034908381818185875af1925050503d805f81146113cc576040519150601f19603f3d011682016040523d82523d5f602084013e6113d1565b606091505b50509050806114135760405162461bcd60e51b815260206004820152600e60248201526d11195c1bdcda5d0819985a5b195960921b6044820152606401610dbc565b50565b61141e611487565b6001600160a01b03811661144757604051631e4fbdf760e01b81525f6004820152602401610dbc565b611413816114dd565b600480546040516379f073f960e11b81526001600160a01b03848116938201939093525f929091169063f3e0e7f29060240161082f565b5f546001600160a01b03163314610aae5760405163118cdaa760e01b8152336004820152602401610dbc565b6002600154036114d657604051633ee5aeb560e01b815260040160405180910390fd5b6002600155565b5f80546001600160a01b038381166001600160a01b0319831681178455604051919092169283917f8be0079c531659141344cd1fd0a4f28419497f9722a3daafe3b4186f6b6457e09190a35050565b5f611537838361153e565b5090919050565b5f7f9e7b61f58c47dc699ac88507c4f5bb9f121c03808c5676a8078fe583e46497008054604051635ca4b5b160e11b8152600481018690526001600160a01b03858116602483015292935091169063b9496b62906044015f604051808303815f87803b1580156115ac575f5ffd5b505af11580156115be573d5f5f3e3d5ffd5b50505050505050565b6040518060a00160405280606081526020015f81526020015f60018111156115f1576115f16117b8565b81525f6020820181905260409091015290565b6040518060c001604052805f81526020015f81526020015f151581526020015f81526020015f600181111561163b5761163b6117b8565b8152602001606081525090565b5f60208284031215611658575f5ffd5b5035919050565b60ff81168114611413575f5ffd5b5f5f6040838503121561167e575f5ffd5b8235915060208301356116908161165f565b809150509250929050565b80356001600160a01b03811681146116b1575f5ffd5b919050565b5f602082840312156116c6575f5ffd5b6112d58261169b565b5f5f83601f8401126116df575f5ffd5b5081356001600160401b038111156116f5575f5ffd5b60208301915083602082850101111561170c575f5ffd5b9250929050565b5f5f5f60408486031215611725575f5ffd5b8335925060208401356001600160401b03811115611741575f5ffd5b61174d868287016116cf565b9497909650939450505050565b8015158114611413575f5ffd5b5f5f60408385031215611778575f5ffd5b8235915060208301356116908161175a565b5f81518084528060208401602086015e5f602082860101526020601f19601f83011685010191505092915050565b634e487b7160e01b5f52602160045260245ffd5b6002811061141357634e487b7160e01b5f52602160045260245ffd5b602081525f825160a0602084015261180360c084018261178a565b905060208401516040840152604084015161181d816117cc565b8060608501525060ff60608501511660808401526080840151151560a08401528091505092915050565b60028110611413575f5ffd5b5f5f5f5f5f5f60a08789031215611868575f5ffd5b8635955060208701356001600160401b03811115611884575f5ffd5b61189089828a016116cf565b9096509450506040870135925060608701356118ab81611847565b915060808701356118bb8161165f565b809150509295509295509295565b5f8151808452602084019350602083015f5b828110156118f95781518652602095860195909101906001016118db565b5093949350505050565b5f8151808452602084019350602083015f5b828110156118f95781511515865260209586019590910190600101611915565b608081525f61194760808301876118c9565b828103602084015280865180835260208301915060208160051b840101602089015f5b8381101561199c57601f1986840301855261198683835161178a565b602095860195909350919091019060010161196a565b505085810360408701526119b081896118c9565b935050505082810360608401526119c78185611903565b979650505050505050565b5f5f604083850312156119e3575f5ffd5b6119ec8361169b565b946020939093013593505050565b602081528151602082015260208201516040820152604082015115156060820152606082015160808201525f6080830151611a34816117cc565b8060a08401525060a083015160c080840152611a5360e084018261178a565b949350505050565b5f5f5f5f5f60808688031215611a6f575f5ffd5b85356001600160401b03811115611a84575f5ffd5b611a90888289016116cf565b909650945050602086013592506040860135611aab81611847565b91506060860135611abb8161165f565b809150509295509295909350565b634e487b7160e01b5f52604160045260245ffd5b60405160c081016001600160401b0381118282101715611aff57611aff611ac9565b60405290565b60405160a081016001600160401b0381118282101715611aff57611aff611ac9565b5f82601f830112611b36575f5ffd5b81516001600160401b03811115611b4f57611b4f611ac9565b604051601f8201601f19908116603f011681016001600160401b0381118282101715611b7d57611b7d611ac9565b604052818152838201602001851015611b94575f5ffd5b8160208501602083015e5f918101602001919091529392505050565b5f60208284031215611bc0575f5ffd5b81516001600160401b03811115611bd5575f5ffd5b820160c08185031215611be6575f5ffd5b611bee611add565b81518152602080830151908201526040820151611c0a8161175a565b6040820152606082810151908201526080820151611c2781611847565b608082015260a08201516001600160401b03811115611c44575f5ffd5b611c5086828501611b27565b60a083015250949350505050565b5f60208284031215611c6e575f5ffd5b81516001600160401b03811115611c83575f5ffd5b820160a08185031215611c94575f5ffd5b611c9c611b05565b81516001600160401b03811115611cb1575f5ffd5b611cbd86828501611b27565b825250602082810151908201526040820151611cd881611847565b60408201526060820151611ceb8161165f565b60608201526080919091015190611d018261175a565b60808101919091529392505050565b6001600160a01b03861681526020810185905260408101849052611d33836117cc565b82606082015260a060808201525f6119c760a083018461178a565b6001600160a01b03841681526020810183905260608101611d6e836117cc565b826040830152949350505050565b838152606060208201525f611d94606083018561178a565b9050826040830152949350505050565b5f60208284031215611db4575f5ffd5b5051919050565b5f60208284031215611dcb575f5ffd5b81516112d58161175a565b81835281816020850137505f828201602090810191909152601f909101601f19169091010190565b60018060a01b0385168152836020820152606060408201525f611e25606083018486611dd6565b9695505050505050565b86815260a060208201525f611e4860a083018789611dd6565b9050846040830152611e59846117cc565b83606083015260ff83166080830152979650505050505050565b634e487b7160e01b5f52603260045260245ffd5b608081525f611e9a608083018789611dd6565b9050846020830152611eab846117cc565b83604083015260ff83166060830152969550505050505056fea264697066735822122042bbb940b60466f86596681ce6b5aeb89998da5cf2bb042b776841814616da6a64736f6c634300081c0033",
  "linkReferences": {},
  "deployedLinkReferences": {}
}