{
  "_format": "hh-sol-artifact-1",
  "contractName": "PrizeManager",
  "sourceName": "src/modules/PrizeManager.sol",
  "abi": [
    {
      "inputs": [],
      "stateMutability": "nonpayable",
      "type": "constructor"
    },
    {
      "inputs": [],
      "name": "InvalidPrizeId",
      "type": "error"
    },
    {
      "inputs": [],
      "name": "InvalidProbability",
      "type": "error"
    },
    {
      "inputs": [
        {
          "internalType": "address",
          "name": "owner",
          "type": "address"
        }
      ],
      "name": "OwnableInvalidOwner",
      "type": "error"
    },
    {
      "inputs": [
        {
          "internalType": "address",
          "name": "account",
          "type": "address"
        }
      ],
      "name": "OwnableUnauthorizedAccount",
      "type": "error"
    },
    {
      "inputs": [],
      "name": "ProbabilityOverflow",
      "type": "error"
    },
    {
      "inputs": [],
      "name": "Unauthorized",
      "type": "error"
    },
    {
      "anonymous": false,
      "inputs": [
        {
          "indexed": true,
          "internalType": "address",
          "name": "previousOwner",
          "type": "address"
        },
        {
          "indexed": true,
          "internalType": "address",
          "name": "newOwner",
          "type": "address"
        }
      ],
      "name": "OwnershipTransferred",
      "type": "event"
    },
    {
      "anonymous": false,
      "inputs": [
        {
          "indexed": true,
          "internalType": "uint256",
          "name": "prizeId",
          "type": "uint256"
        },
        {
          "indexed": false,
          "internalType": "string",
          "name": "name",
          "type": "string"
        },
        {
          "indexed": false,
          "internalType": "uint256",
          "name": "value",
          "type": "uint256"
        },
        {
          "indexed": false,
          "internalType": "enum IPrizeManager.PrizeType",
          "name": "prizeType",
          "type": "uint8"
        },
        {
          "indexed": false,
          "internalType": "uint8",
          "name": "probability",
          "type": "uint8"
        }
      ],
      "name": "PrizeAdded",
      "type": "event"
    },
    {
      "anonymous": false,
      "inputs": [
        {
          "indexed": true,
          "internalType": "uint256",
          "name": "prizeId",
          "type": "uint256"
        },
        {
          "indexed": false,
          "internalType": "bool",
          "name": "active",
          "type": "bool"
        }
      ],
      "name": "PrizeStatusChanged",
      "type": "event"
    },
    {
      "anonymous": false,
      "inputs": [
        {
          "indexed": true,
          "internalType": "uint256",
          "name": "prizeId",
          "type": "uint256"
        },
        {
          "indexed": false,
          "internalType": "string",
          "name": "name",
          "type": "string"
        },
        {
          "indexed": false,
          "internalType": "uint256",
          "name": "value",
          "type": "uint256"
        },
        {
          "indexed": false,
          "internalType": "enum IPrizeManager.PrizeType",
          "name": "prizeType",
          "type": "uint8"
        },
        {
          "indexed": false,
          "internalType": "uint8",
          "name": "probability",
          "type": "uint8"
        }
      ],
      "name": "PrizeUpdated",
      "type": "event"
    },
    {
      "inputs": [
        {
          "internalType": "string",
          "name": "name",
          "type": "string"
        },
        {
          "internalType": "uint256",
          "name": "value",
          "type": "uint256"
        },
        {
          "internalType": "enum IPrizeManager.PrizeType",
          "name": "prizeType",
          "type": "uint8"
        },
        {
          "internalType": "uint8",
          "name": "probability",
          "type": "uint8"
        }
      ],
      "name": "addPrize",
      "outputs": [],
      "stateMutability": "nonpayable",
      "type": "function"
    },
    {
      "inputs": [
        {
          "internalType": "address",
          "name": "",
          "type": "address"
        }
      ],
      "name": "authorized",
      "outputs": [
        {
          "internalType": "bool",
          "name": "",
          "type": "bool"
        }
      ],
      "stateMutability": "view",
      "type": "function"
    },
    {
      "inputs": [
        {
          "internalType": "uint256",
          "name": "prizeId",
          "type": "uint256"
        }
      ],
      "name": "getPrize",
      "outputs": [
        {
          "components": [
            {
              "internalType": "string",
              "name": "name",
              "type": "string"
            },
            {
              "internalType": "uint256",
              "name": "value",
              "type": "uint256"
            },
            {
              "internalType": "enum IPrizeManager.PrizeType",
              "name": "prizeType",
              "type": "uint8"
            },
            {
              "internalType": "uint8",
              "name": "probability",
              "type": "uint8"
            },
            {
              "internalType": "bool",
              "name": "active",
              "type": "bool"
            }
          ],
          "internalType": "struct IPrizeManager.Prize",
          "name": "",
          "type": "tuple"
        }
      ],
      "stateMutability": "view",
      "type": "function"
    },
    {
      "inputs": [],
      "name": "getPrizeCount",
      "outputs": [
        {
          "internalType": "uint256",
          "name": "",
          "type": "uint256"
        }
      ],
      "stateMutability": "view",
      "type": "function"
    },
    {
      "inputs": [],
      "name": "getTotalProbability",
      "outputs": [
        {
          "internalType": "uint256",
          "name": "",
          "type": "uint256"
        }
      ],
      "stateMutability": "view",
      "type": "function"
    },
    {
      "inputs": [
        {
          "internalType": "uint256",
          "name": "prizeId",
          "type": "uint256"
        }
      ],
      "name": "isPrizeActive",
      "outputs": [
        {
          "internalType": "bool",
          "name": "",
          "type": "bool"
        }
      ],
      "stateMutability": "view",
      "type": "function"
    },
    {
      "inputs": [],
      "name": "owner",
      "outputs": [
        {
          "internalType": "address",
          "name": "",
          "type": "address"
        }
      ],
      "stateMutability": "view",
      "type": "function"
    },
    {
      "inputs": [],
      "name": "renounceOwnership",
      "outputs": [],
      "stateMutability": "nonpayable",
      "type": "function"
    },
    {
      "inputs": [
        {
          "internalType": "address",
          "name": "account",
          "type": "address"
        },
        {
          "internalType": "bool",
          "name": "status",
          "type": "bool"
        }
      ],
      "name": "setAuthorization",
      "outputs": [],
      "stateMutability": "nonpayable",
      "type": "function"
    },
    {
      "inputs": [
        {
          "internalType": "uint256",
          "name": "prizeId",
          "type": "uint256"
        },
        {
          "internalType": "bool",
          "name": "active",
          "type": "bool"
        }
      ],
      "name": "setPrizeActive",
      "outputs": [],
      "stateMutability": "nonpayable",
      "type": "function"
    },
    {
      "inputs": [
        {
          "internalType": "address",
          "name": "newOwner",
          "type": "address"
        }
      ],
      "name": "transferOwnership",
      "outputs": [],
      "stateMutability": "nonpayable",
      "type": "function"
    },
    {
      "inputs": [
        {
          "internalType": "uint256",
          "name": "prizeId",
          "type": "uint256"
        },
        {
          "internalType": "string",
          "name": "name",
          "type": "string"
        },
        {
          "internalType": "uint256",
          "name": "value",
          "type": "uint256"
        },
        {
          "internalType": "enum IPrizeManager.PrizeType",
          "name": "prizeType",
          "type": "uint8"
        },
        {
          "internalType": "uint8",
          "name": "probability",
          "type": "uint8"
        }
      ],
      "name": "updatePrize",
      "outputs": [],
      "stateMutability": "nonpayable",
      "type": "function"
    }
  ],
  "bytecode": "0x608060405234801561000f575f5ffd5b50338061003557604051631e4fbdf760e01b81525f600482015260240160405180910390fd5b61003e81610138565b506040805180820190915260098152685468616e6b20596f7560b81b602082015261006c905f806028610187565b60408051808201909152600a81526931303020506f696e747360b01b602082015261009b9060645f601e610187565b60408051808201909152600a81526935303020506f696e747360b01b60208201526100cb906101f45f6014610187565b6040805180820190915260078152660605c62408aa8960cb1b60208201526100ff9067016345785d8a000060016008610187565b6040805180820190915260078152660605c6a408aa8960cb1b6020820152610133906706f05b59d3b2000060016002610187565b610524565b5f80546001600160a01b038381166001600160a01b0319831681178455604051919092169283917f8be0079c531659141344cd1fd0a4f28419497f9722a3daafe3b4186f6b6457e09190a35050565b60648160ff1611156101ac57604051631ddde97960e31b815260040160405180910390fd5b5f8160ff166002546101be9190610329565b905060648111156101e2576040516303ea9f9160e41b815260040160405180910390fd5b8060028190555060016040518060a0016040528087815260200186815260200185600181111561021457610214610342565b815260ff851660208083019190915260016040909201829052835491820184555f938452909220815191926003020190819061025090826103ee565b50602082015181600101556040820151816002015f6101000a81548160ff0219169083600181111561028457610284610342565b02179055506060820151600290910180546080909301511515620100000262ff00001960ff909316610100029290921662ffff001990931692909217179055600180546102d191906104a8565b7f0e69f50f09b7abff6447f6c33e85881cb84d82599d9033b7baa21a9f6ae525268686868660405161030694939291906104bb565b60405180910390a25050505050565b634e487b7160e01b5f52601160045260245ffd5b8082018082111561033c5761033c610315565b92915050565b634e487b7160e01b5f52602160045260245ffd5b634e487b7160e01b5f52604160045260245ffd5b600181811c9082168061037e57607f821691505b60208210810361039c57634e487b7160e01b5f52602260045260245ffd5b50919050565b601f8211156103e957805f5260205f20601f840160051c810160208510156103c75750805b601f840160051c820191505b818110156103e6575f81556001016103d3565b50505b505050565b81516001600160401b0381111561040757610407610356565b61041b81610415845461036a565b846103a2565b6020601f82116001811461044d575f83156104365750848201515b5f19600385901b1c1916600184901b1784556103e6565b5f84815260208120601f198516915b8281101561047c578785015182556020948501946001909201910161045c565b508482101561049957868401515f19600387901b60f8161c191681555b50505050600190811b01905550565b8181038181111561033c5761033c610315565b608081525f8551806080840152806020880160a085015e5f60a0828501015260a0601f19601f8301168401019150508460208301526002841061050c57634e487b7160e01b5f52602160045260245ffd5b83604083015260ff8316606083015295945050505050565b610e42806105315f395ff3fe608060405234801561000f575f5ffd5b50600436106100b1575f3560e01c8063a1099bf21161006e578063a1099bf21461012e578063aefd3cf61461014e578063b918161114610161578063dd777a5314610183578063eecea00014610196578063f2fde38b146101a9575f5ffd5b80633623ac2f146100b55780635318fe15146100dd5780635bdfd2a9146100ef578063715018a6146100f75780638da5cb5b146101015780639554679f1461011b575b5f5ffd5b6100c86100c3366004610931565b6101bc565b60405190151581526020015b60405180910390f35b6002545b6040519081526020016100d4565b6001546100e1565b6100ff610203565b005b5f546040516001600160a01b0390911681526020016100d4565b6100ff61012936600461095c565b610216565b61014161013c366004610931565b6102ba565b6040516100d491906109e8565b6100ff61015c366004610aa8565b610403565b6100c861016f366004610b2f565b60036020525f908152604090205460ff1681565b6100ff610191366004610b4f565b610625565b6100ff6101a4366004610bb8565b610677565b6100ff6101b7366004610b2f565b6106a9565b6001545f9082106101ce57505f919050565b600182815481106101e1576101e1610be0565b5f91825260209091206003909102016002015462010000900460ff1692915050565b61020b6106eb565b6102145f610717565b565b61021e6106eb565b6001548210610240576040516325ee14af60e21b815260040160405180910390fd5b806001838154811061025457610254610be0565b905f5260205f20906003020160020160026101000a81548160ff021916908315150217905550817f9822105b279e84f3d0440168c723c7784bd954ce251d144a972806f282302ff9826040516102ae911515815260200190565b60405180910390a25050565b6102c26108f4565b60015482106102e4576040516325ee14af60e21b815260040160405180910390fd5b600182815481106102f7576102f7610be0565b905f5260205f2090600302016040518060a00160405290815f8201805461031d90610bf4565b80601f016020809104026020016040519081016040528092919081815260200182805461034990610bf4565b80156103945780601f1061036b57610100808354040283529160200191610394565b820191905f5260205f20905b81548152906001019060200180831161037757829003601f168201915b50505091835250506001828101546020830152600283015460409092019160ff16908111156103c5576103c56109b4565b60018111156103d6576103d66109b4565b81526002919091015460ff6101008204811660208401526201000090910416151560409091015292915050565b61040b6106eb565b600154861061042d576040516325ee14af60e21b815260040160405180910390fd5b60648160ff16111561045257604051631ddde97960e31b815260040160405180910390fd5b5f8160ff166001888154811061046a5761046a610be0565b5f9182526020909120600260039092020181015490546104939160ff6101009091041690610c40565b61049d9190610c59565b905060648111156104c1576040516303ea9f9160e41b815260040160405180910390fd5b60028190556040805160c06020601f8901819004028201810190925260a08101878152909182919089908990819085018382808284375f9201919091525050509082525060208101869052604001846001811115610521576105216109b4565b81526020018360ff168152602001600115158152506001888154811061054957610549610be0565b5f918252602090912082516003909202019081906105679082610cc9565b50602082015181600101556040820151816002015f6101000a81548160ff0219169083600181111561059b5761059b6109b4565b02179055506060820151600290910180546080909301511515620100000262ff00001960ff909316610100029290921662ffff00199093169290921717905560405187907f6f481e270bd9daa4ae1bdeb1ed898dba35e34546528b18aa571a29c381a1379d906106149089908990899089908990610d84565b60405180910390a250505050505050565b61062d6106eb565b61067085858080601f0160208091040260200160405190810160405280939291908181526020018383808284375f92019190915250879250869150859050610766565b5050505050565b61067f6106eb565b6001600160a01b03919091165f908152600360205260409020805460ff1916911515919091179055565b6106b16106eb565b6001600160a01b0381166106df57604051631e4fbdf760e01b81525f60048201526024015b60405180910390fd5b6106e881610717565b50565b5f546001600160a01b031633146102145760405163118cdaa760e01b81523360048201526024016106d6565b5f80546001600160a01b038381166001600160a01b0319831681178455604051919092169283917f8be0079c531659141344cd1fd0a4f28419497f9722a3daafe3b4186f6b6457e09190a35050565b60648160ff16111561078b57604051631ddde97960e31b815260040160405180910390fd5b5f8160ff1660025461079d9190610c59565b905060648111156107c1576040516303ea9f9160e41b815260040160405180910390fd5b8060028190555060016040518060a001604052808781526020018681526020018560018111156107f3576107f36109b4565b815260ff851660208083019190915260016040909201829052835491820184555f938452909220815191926003020190819061082f9082610cc9565b50602082015181600101556040820151816002015f6101000a81548160ff02191690836001811115610863576108636109b4565b02179055506060820151600290910180546080909301511515620100000262ff00001960ff909316610100029290921662ffff001990931692909217179055600180546108b09190610c40565b7f0e69f50f09b7abff6447f6c33e85881cb84d82599d9033b7baa21a9f6ae52526868686866040516108e59493929190610dd3565b60405180910390a25050505050565b6040518060a00160405280606081526020015f81526020015f600181111561091e5761091e6109b4565b81525f6020820181905260409091015290565b5f60208284031215610941575f5ffd5b5035919050565b80358015158114610957575f5ffd5b919050565b5f5f6040838503121561096d575f5ffd5b8235915061097d60208401610948565b90509250929050565b5f81518084528060208401602086015e5f602082860101526020601f19601f83011685010191505092915050565b634e487b7160e01b5f52602160045260245ffd5b600281106109e457634e487b7160e01b5f52602160045260245ffd5b9052565b602081525f825160a06020840152610a0360c0840182610986565b9050602084015160408401526040840151610a2160608501826109c8565b5060ff60608501511660808401526080840151151560a08401528091505092915050565b5f5f83601f840112610a55575f5ffd5b50813567ffffffffffffffff811115610a6c575f5ffd5b602083019150836020828501011115610a83575f5ffd5b9250929050565b803560028110610957575f5ffd5b803560ff81168114610957575f5ffd5b5f5f5f5f5f5f60a08789031215610abd575f5ffd5b86359550602087013567ffffffffffffffff811115610ada575f5ffd5b610ae689828a01610a45565b90965094505060408701359250610aff60608801610a8a565b9150610b0d60808801610a98565b90509295509295509295565b80356001600160a01b0381168114610957575f5ffd5b5f60208284031215610b3f575f5ffd5b610b4882610b19565b9392505050565b5f5f5f5f5f60808688031215610b63575f5ffd5b853567ffffffffffffffff811115610b79575f5ffd5b610b8588828901610a45565b90965094505060208601359250610b9e60408701610a8a565b9150610bac60608701610a98565b90509295509295909350565b5f5f60408385031215610bc9575f5ffd5b610bd283610b19565b915061097d60208401610948565b634e487b7160e01b5f52603260045260245ffd5b600181811c90821680610c0857607f821691505b602082108103610c2657634e487b7160e01b5f52602260045260245ffd5b50919050565b634e487b7160e01b5f52601160045260245ffd5b81810381811115610c5357610c53610c2c565b92915050565b80820180821115610c5357610c53610c2c565b634e487b7160e01b5f52604160045260245ffd5b601f821115610cc457805f5260205f20601f840160051c81016020851015610ca55750805b601f840160051c820191505b81811015610670575f8155600101610cb1565b505050565b815167ffffffffffffffff811115610ce357610ce3610c6c565b610cf781610cf18454610bf4565b84610c80565b6020601f821160018114610d29575f8315610d125750848201515b5f19600385901b1c1916600184901b178455610670565b5f84815260208120601f198516915b82811015610d585787850151825560209485019460019092019101610d38565b5084821015610d7557868401515f19600387901b60f8161c191681555b50505050600190811b01905550565b60808152846080820152848660a08301375f60a086830101525f60a0601f19601f8801168301019050846020830152610dc060408301856109c8565b60ff831660608301529695505050505050565b608081525f610de56080830187610986565b9050846020830152610dfa60408301856109c8565b60ff831660608301529594505050505056fea264697066735822122052ba6f48785cd8b684bfb0f380370273cd3f371a9a8f024f6421e14be7fac2a864736f6c634300081c0033",
  "linkReferences": {},
  "deployedLinkReferences": {}
}