{
  "_format": "hh-sol-artifact-1",
  "contractName": "RewardDistributor",
  "sourceName": "src/modules/RewardDistributor.sol",
  "abi": [
    {
      "inputs": [],
      "stateMutability": "nonpayable",
      "type": "constructor"
    },
    {
      "inputs": [],
      "name": "InsufficientContractBalance",
      "type": "error"
    },
    {
      "inputs": [],
      "name": "InvalidAmount",
      "type": "error"
    },
    {
      "inputs": [
        {
          "internalType": "address",
          "name": "owner",
          "type": "address"
        }
      ],
      "name": "OwnableInvalidOwner",
      "type": "error"
    },
    {
      "inputs": [
        {
          "internalType": "address",
          "name": "account",
          "type": "address"
        }
      ],
      "name": "OwnableUnauthorizedAccount",
      "type": "error"
    },
    {
      "inputs": [],
      "name": "ReentrancyGuardReentrantCall",
      "type": "error"
    },
    {
      "inputs": [],
      "name": "TransferFailed",
      "type": "error"
    },
    {
      "inputs": [],
      "name": "Unauthorized",
      "type": "error"
    },
    {
      "anonymous": false,
      "inputs": [
        {
          "indexed": true,
          "internalType": "address",
          "name": "user",
          "type": "address"
        },
        {
          "indexed": false,
          "internalType": "uint256",
          "name": "amount",
          "type": "uint256"
        }
      ],
      "name": "EthPrizeAwarded",
      "type": "event"
    },
    {
      "anonymous": false,
      "inputs": [
        {
          "indexed": true,
          "internalType": "address",
          "name": "sender",
          "type": "address"
        },
        {
          "indexed": false,
          "internalType": "uint256",
          "name": "amount",
          "type": "uint256"
        }
      ],
      "name": "FundsDeposited",
      "type": "event"
    },
    {
      "anonymous": false,
      "inputs": [
        {
          "indexed": true,
          "internalType": "address",
          "name": "owner",
          "type": "address"
        },
        {
          "indexed": false,
          "internalType": "uint256",
          "name": "amount",
          "type": "uint256"
        }
      ],
      "name": "FundsWithdrawn",
      "type": "event"
    },
    {
      "anonymous": false,
      "inputs": [
        {
          "indexed": true,
          "internalType": "address",
          "name": "previousOwner",
          "type": "address"
        },
        {
          "indexed": true,
          "internalType": "address",
          "name": "newOwner",
          "type": "address"
        }
      ],
      "name": "OwnershipTransferred",
      "type": "event"
    },
    {
      "anonymous": false,
      "inputs": [
        {
          "indexed": true,
          "internalType": "address",
          "name": "user",
          "type": "address"
        },
        {
          "indexed": false,
          "internalType": "uint256",
          "name": "points",
          "type": "uint256"
        }
      ],
      "name": "PointsAwarded",
      "type": "event"
    },
    {
      "inputs": [
        {
          "internalType": "address",
          "name": "",
          "type": "address"
        }
      ],
      "name": "authorized",
      "outputs": [
        {
          "internalType": "bool",
          "name": "",
          "type": "bool"
        }
      ],
      "stateMutability": "view",
      "type": "function"
    },
    {
      "inputs": [],
      "name": "depositFunds",
      "outputs": [],
      "stateMutability": "payable",
      "type": "function"
    },
    {
      "inputs": [
        {
          "internalType": "address",
          "name": "user",
          "type": "address"
        },
        {
          "internalType": "uint256",
          "name": "value",
          "type": "uint256"
        },
        {
          "internalType": "enum IRewardDistributor.PrizeType",
          "name": "prizeType",
          "type": "uint8"
        }
      ],
      "name": "distributePrize",
      "outputs": [],
      "stateMutability": "nonpayable",
      "type": "function"
    },
    {
      "inputs": [],
      "name": "getContractBalance",
      "outputs": [
        {
          "internalType": "uint256",
          "name": "",
          "type": "uint256"
        }
      ],
      "stateMutability": "view",
      "type": "function"
    },
    {
      "inputs": [],
      "name": "getTotalEthDistributed",
      "outputs": [
        {
          "internalType": "uint256",
          "name": "",
          "type": "uint256"
        }
      ],
      "stateMutability": "view",
      "type": "function"
    },
    {
      "inputs": [],
      "name": "getTotalPointsDistributed",
      "outputs": [
        {
          "internalType": "uint256",
          "name": "",
          "type": "uint256"
        }
      ],
      "stateMutability": "view",
      "type": "function"
    },
    {
      "inputs": [
        {
          "internalType": "address",
          "name": "user",
          "type": "address"
        }
      ],
      "name": "getUserPoints",
      "outputs": [
        {
          "internalType": "uint256",
          "name": "",
          "type": "uint256"
        }
      ],
      "stateMutability": "view",
      "type": "function"
    },
    {
      "inputs": [
        {
          "internalType": "address",
          "name": "user",
          "type": "address"
        }
      ],
      "name": "getUserTotalEthWon",
      "outputs": [
        {
          "internalType": "uint256",
          "name": "",
          "type": "uint256"
        }
      ],
      "stateMutability": "view",
      "type": "function"
    },
    {
      "inputs": [],
      "name": "owner",
      "outputs": [
        {
          "internalType": "address",
          "name": "",
          "type": "address"
        }
      ],
      "stateMutability": "view",
      "type": "function"
    },
    {
      "inputs": [],
      "name": "renounceOwnership",
      "outputs": [],
      "stateMutability": "nonpayable",
      "type": "function"
    },
    {
      "inputs": [
        {
          "internalType": "address",
          "name": "account",
          "type": "address"
        },
        {
          "internalType": "bool",
          "name": "status",
          "type": "bool"
        }
      ],
      "name": "setAuthorization",
      "outputs": [],
      "stateMutability": "nonpayable",
      "type": "function"
    },
    {
      "inputs": [
        {
          "internalType": "address",
          "name": "newOwner",
          "type": "address"
        }
      ],
      "name": "transferOwnership",
      "outputs": [],
      "stateMutability": "nonpayable",
      "type": "function"
    },
    {
      "inputs": [
        {
          "internalType": "uint256",
          "name": "amount",
          "type": "uint256"
        }
      ],
      "name": "withdrawFunds",
      "outputs": [],
      "stateMutability": "nonpayable",
      "type": "function"
    },
    {
      "stateMutability": "payable",
      "type": "receive"
    }
  ],
  "bytecode": "0x6080604052348015600e575f5ffd5b503380603357604051631e4fbdf760e01b81525f600482015260240160405180910390fd5b603a816043565b50600180556092565b5f80546001600160a01b038381166001600160a01b0319831681178455604051919092169283917f8be0079c531659141344cd1fd0a4f28419497f9722a3daafe3b4186f6b6457e09190a35050565b6108968061009f5f395ff3fe6080604052600436106100c2575f3560e01c8063aeefe31f1161007c578063e2c41dbc11610057578063e2c41dbc1461024c578063eecea00014610254578063f2fde38b14610273578063f8bea4f114610292575f5ffd5b8063aeefe31f146101a6578063b9181611146101da578063cecbfa9d14610218575f5ffd5b8063155dd5ee146101025780631f14ed491461012357806328a6f29d146101465780636f9fb98a1461015a578063715018a61461016c5780638da5cb5b14610180575f5ffd5b366100fe5760405134815233907f543ba50a5eec5e6178218e364b1d0f396157b3c8fa278522c2cb7fd99407d4749060200160405180910390a2005b5f5ffd5b34801561010d575f5ffd5b5061012161011c36600461075c565b6102b1565b005b34801561012e575f5ffd5b506005545b6040519081526020015b60405180910390f35b348015610151575f5ffd5b50600454610133565b348015610165575f5ffd5b5047610133565b348015610177575f5ffd5b506101216103cd565b34801561018b575f5ffd5b505f546040516001600160a01b03909116815260200161013d565b3480156101b1575f5ffd5b506101336101c036600461078e565b6001600160a01b03165f9081526002602052604090205490565b3480156101e5575f5ffd5b506102086101f436600461078e565b60066020525f908152604090205460ff1681565b604051901515815260200161013d565b348015610223575f5ffd5b5061013361023236600461078e565b6001600160a01b03165f9081526003602052604090205490565b6101216103e0565b34801561025f575f5ffd5b5061012161026e3660046107ae565b610417565b34801561027e575f5ffd5b5061012161028d36600461078e565b610449565b34801561029d575f5ffd5b506101216102ac3660046107e7565b610488565b6102b96106b7565b6102c16106e3565b805f036102e15760405163162908e360e11b815260040160405180910390fd5b804710156103025760405163786e0a9960e01b815260040160405180910390fd5b5f80546040516001600160a01b039091169083908381818185875af1925050503d805f811461034c576040519150601f19603f3d011682016040523d82523d5f602084013e610351565b606091505b5050905080610373576040516312171d8360e31b815260040160405180910390fd5b5f546001600160a01b03166001600160a01b03167feaff4b37086828766ad3268786972c0cd24259d4c87a80f9d3963a3c3d999b0d836040516103b891815260200190565b60405180910390a2506103ca60018055565b50565b6103d56106b7565b6103de5f61070d565b565b60405134815233907f543ba50a5eec5e6178218e364b1d0f396157b3c8fa278522c2cb7fd99407d4749060200160405180910390a2565b61041f6106b7565b6001600160a01b03919091165f908152600660205260409020805460ff1916911515919091179055565b6104516106b7565b6001600160a01b03811661047f57604051631e4fbdf760e01b81525f60048201526024015b60405180910390fd5b6103ca8161070d565b335f9081526006602052604090205460ff161580156104b157505f546001600160a01b03163314155b156104ce576040516282b42960e81b815260040160405180910390fd5b6104d66106e3565b81156106a9575f8160018111156104ef576104ef610827565b0361057b576001600160a01b0383165f908152600260205260408120805484929061051b90849061083b565b925050819055508160045f828254610533919061083b565b90915550506040518281526001600160a01b038416907f900825d4808e50002c1a3614c809eb06d2d7142338f0dec06ed9a4057c8a8c999060200160405180910390a26106a9565b600181600181111561058f5761058f610827565b036106a957814710156105b55760405163786e0a9960e01b815260040160405180910390fd5b5f836001600160a01b0316836040515f6040518083038185875af1925050503d805f81146105fe576040519150601f19603f3d011682016040523d82523d5f602084013e610603565b606091505b5050905080610625576040516312171d8360e31b815260040160405180910390fd5b6001600160a01b0384165f908152600360205260408120805485929061064c90849061083b565b925050819055508260055f828254610664919061083b565b90915550506040518381526001600160a01b038516907f9370df38b8ad02baccd2fcc007196dda72b04f989a8c521fa7414775f06afb019060200160405180910390a2505b6106b260018055565b505050565b5f546001600160a01b031633146103de5760405163118cdaa760e01b8152336004820152602401610476565b60026001540361070657604051633ee5aeb560e01b815260040160405180910390fd5b6002600155565b5f80546001600160a01b038381166001600160a01b0319831681178455604051919092169283917f8be0079c531659141344cd1fd0a4f28419497f9722a3daafe3b4186f6b6457e09190a35050565b5f6020828403121561076c575f5ffd5b5035919050565b80356001600160a01b0381168114610789575f5ffd5b919050565b5f6020828403121561079e575f5ffd5b6107a782610773565b9392505050565b5f5f604083850312156107bf575f5ffd5b6107c883610773565b9150602083013580151581146107dc575f5ffd5b809150509250929050565b5f5f5f606084860312156107f9575f5ffd5b61080284610773565b92506020840135915060408401356002811061081c575f5ffd5b809150509250925092565b634e487b7160e01b5f52602160045260245ffd5b8082018082111561085a57634e487b7160e01b5f52601160045260245ffd5b9291505056fea26469706673582212207cafacba874bdd45bef11e4dbf82c898c0e9a7ada15bb5b92bb117d371edf47364736f6c634300081c0033",
  "linkReferences": {},
  "deployedLinkReferences": {}
}