{
  "_format": "hh-sol-artifact-1",
  "contractName": "SimpleFHELuckySpin",
  "sourceName": "src/SimpleFHELuckySpin.sol",
  "abi": [
    {
      "inputs": [],
      "stateMutability": "nonpayable",
      "type": "constructor"
    },
    {
      "inputs": [],
      "name": "AlreadyClaimed",
      "type": "error"
    },
    {
      "inputs": [],
      "name": "DailyLimitExceeded",
      "type": "error"
    },
    {
      "inputs": [],
      "name": "InsufficientPayment",
      "type": "error"
    },
    {
      "inputs": [],
      "name": "InvalidPrizeId",
      "type": "error"
    },
    {
      "inputs": [],
      "name": "InvalidProbability",
      "type": "error"
    },
    {
      "inputs": [
        {
          "internalType": "address",
          "name": "owner",
          "type": "address"
        }
      ],
      "name": "OwnableInvalidOwner",
      "type": "error"
    },
    {
      "inputs": [
        {
          "internalType": "address",
          "name": "account",
          "type": "address"
        }
      ],
      "name": "OwnableUnauthorizedAccount",
      "type": "error"
    },
    {
      "inputs": [],
      "name": "ReentrancyGuardReentrantCall",
      "type": "error"
    },
    {
      "anonymous": false,
      "inputs": [
        {
          "indexed": true,
          "internalType": "address",
          "name": "previousOwner",
          "type": "address"
        },
        {
          "indexed": true,
          "internalType": "address",
          "name": "newOwner",
          "type": "address"
        }
      ],
      "name": "OwnershipTransferred",
      "type": "event"
    },
    {
      "anonymous": false,
      "inputs": [
        {
          "indexed": true,
          "internalType": "uint256",
          "name": "prizeId",
          "type": "uint256"
        },
        {
          "indexed": false,
          "internalType": "string",
          "name": "name",
          "type": "string"
        },
        {
          "indexed": false,
          "internalType": "uint256",
          "name": "value",
          "type": "uint256"
        },
        {
          "indexed": false,
          "internalType": "uint8",
          "name": "probability",
          "type": "uint8"
        }
      ],
      "name": "PrizeAdded",
      "type": "event"
    },
    {
      "anonymous": false,
      "inputs": [
        {
          "indexed": true,
          "internalType": "address",
          "name": "user",
          "type": "address"
        },
        {
          "indexed": false,
          "internalType": "uint256",
          "name": "spinId",
          "type": "uint256"
        },
        {
          "indexed": false,
          "internalType": "string",
          "name": "prizeName",
          "type": "string"
        },
        {
          "indexed": false,
          "internalType": "uint256",
          "name": "prizeValue",
          "type": "uint256"
        }
      ],
      "name": "PrizeClaimed",
      "type": "event"
    },
    {
      "anonymous": false,
      "inputs": [
        {
          "indexed": true,
          "internalType": "address",
          "name": "user",
          "type": "address"
        },
        {
          "indexed": false,
          "internalType": "uint256",
          "name": "spinId",
          "type": "uint256"
        },
        {
          "indexed": false,
          "internalType": "uint256",
          "name": "timestamp",
          "type": "uint256"
        }
      ],
      "name": "SpinExecuted",
      "type": "event"
    },
    {
      "inputs": [],
      "name": "MAX_DAILY_SPINS",
      "outputs": [
        {
          "internalType": "uint256",
          "name": "",
          "type": "uint256"
        }
      ],
      "stateMutability": "view",
      "type": "function"
    },
    {
      "inputs": [],
      "name": "SPIN_COST",
      "outputs": [
        {
          "internalType": "uint256",
          "name": "",
          "type": "uint256"
        }
      ],
      "stateMutability": "view",
      "type": "function"
    },
    {
      "inputs": [
        {
          "internalType": "string",
          "name": "name",
          "type": "string"
        },
        {
          "internalType": "uint256",
          "name": "value",
          "type": "uint256"
        },
        {
          "internalType": "uint8",
          "name": "probability",
          "type": "uint8"
        }
      ],
      "name": "addPrize",
      "outputs": [],
      "stateMutability": "nonpayable",
      "type": "function"
    },
    {
      "inputs": [
        {
          "internalType": "uint256",
          "name": "spinId",
          "type": "uint256"
        },
        {
          "internalType": "uint8",
          "name": "decryptedPrizeIndex",
          "type": "uint8"
        }
      ],
      "name": "claimPrize",
      "outputs": [],
      "stateMutability": "nonpayable",
      "type": "function"
    },
    {
      "inputs": [
        {
          "internalType": "address",
          "name": "",
          "type": "address"
        }
      ],
      "name": "dailySpinCount",
      "outputs": [
        {
          "internalType": "uint256",
          "name": "",
          "type": "uint256"
        }
      ],
      "stateMutability": "view",
      "type": "function"
    },
    {
      "inputs": [],
      "name": "getContractBalance",
      "outputs": [
        {
          "internalType": "uint256",
          "name": "",
          "type": "uint256"
        }
      ],
      "stateMutability": "view",
      "type": "function"
    },
    {
      "inputs": [
        {
          "internalType": "uint256",
          "name": "prizeId",
          "type": "uint256"
        }
      ],
      "name": "getPrize",
      "outputs": [
        {
          "components": [
            {
              "internalType": "string",
              "name": "name",
              "type": "string"
            },
            {
              "internalType": "uint256",
              "name": "value",
              "type": "uint256"
            },
            {
              "internalType": "uint8",
              "name": "probability",
              "type": "uint8"
            },
            {
              "internalType": "bool",
              "name": "active",
              "type": "bool"
            }
          ],
          "internalType": "struct SimpleFHELuckySpin.Prize",
          "name": "",
          "type": "tuple"
        }
      ],
      "stateMutability": "view",
      "type": "function"
    },
    {
      "inputs": [],
      "name": "getPrizeCount",
      "outputs": [
        {
          "internalType": "uint256",
          "name": "",
          "type": "uint256"
        }
      ],
      "stateMutability": "view",
      "type": "function"
    },
    {
      "inputs": [
        {
          "internalType": "address",
          "name": "user",
          "type": "address"
        }
      ],
      "name": "getRemainingSpins",
      "outputs": [
        {
          "internalType": "uint256",
          "name": "",
          "type": "uint256"
        }
      ],
      "stateMutability": "view",
      "type": "function"
    },
    {
      "inputs": [
        {
          "internalType": "address",
          "name": "user",
          "type": "address"
        }
      ],
      "name": "getUserSpinCount",
      "outputs": [
        {
          "internalType": "uint256",
          "name": "",
          "type": "uint256"
        }
      ],
      "stateMutability": "view",
      "type": "function"
    },
    {
      "inputs": [
        {
          "internalType": "address",
          "name": "user",
          "type": "address"
        },
        {
          "internalType": "uint256",
          "name": "spinId",
          "type": "uint256"
        }
      ],
      "name": "getUserSpinRecord",
      "outputs": [
        {
          "components": [
            {
              "internalType": "address",
              "name": "user",
              "type": "address"
            },
            {
              "internalType": "uint256",
              "name": "timestamp",
              "type": "uint256"
            },
            {
              "internalType": "euint8",
              "name": "encryptedPrize",
              "type": "bytes32"
            },
            {
              "internalType": "bool",
              "name": "claimed",
              "type": "bool"
            },
            {
              "internalType": "string",
              "name": "prizeName",
              "type": "string"
            },
            {
              "internalType": "uint256",
              "name": "prizeValue",
              "type": "uint256"
            }
          ],
          "internalType": "struct SimpleFHELuckySpin.SpinRecord",
          "name": "",
          "type": "tuple"
        }
      ],
      "stateMutability": "view",
      "type": "function"
    },
    {
      "inputs": [
        {
          "internalType": "address",
          "name": "",
          "type": "address"
        }
      ],
      "name": "lastSpinDate",
      "outputs": [
        {
          "internalType": "uint256",
          "name": "",
          "type": "uint256"
        }
      ],
      "stateMutability": "view",
      "type": "function"
    },
    {
      "inputs": [],
      "name": "owner",
      "outputs": [
        {
          "internalType": "address",
          "name": "",
          "type": "address"
        }
      ],
      "stateMutability": "view",
      "type": "function"
    },
    {
      "inputs": [
        {
          "internalType": "uint256",
          "name": "",
          "type": "uint256"
        }
      ],
      "name": "prizes",
      "outputs": [
        {
          "internalType": "string",
          "name": "name",
          "type": "string"
        },
        {
          "internalType": "uint256",
          "name": "value",
          "type": "uint256"
        },
        {
          "internalType": "uint8",
          "name": "probability",
          "type": "uint8"
        },
        {
          "internalType": "bool",
          "name": "active",
          "type": "bool"
        }
      ],
      "stateMutability": "view",
      "type": "function"
    },
    {
      "inputs": [],
      "name": "protocolId",
      "outputs": [
        {
          "internalType": "uint256",
          "name": "",
          "type": "uint256"
        }
      ],
      "stateMutability": "pure",
      "type": "function"
    },
    {
      "inputs": [],
      "name": "renounceOwnership",
      "outputs": [],
      "stateMutability": "nonpayable",
      "type": "function"
    },
    {
      "inputs": [
        {
          "internalType": "externalEuint8",
          "name": "encryptedPrizeIndex",
          "type": "bytes32"
        },
        {
          "internalType": "bytes",
          "name": "proof",
          "type": "bytes"
        }
      ],
      "name": "spin",
      "outputs": [],
      "stateMutability": "payable",
      "type": "function"
    },
    {
      "inputs": [
        {
          "internalType": "address",
          "name": "newOwner",
          "type": "address"
        }
      ],
      "name": "transferOwnership",
      "outputs": [],
      "stateMutability": "nonpayable",
      "type": "function"
    },
    {
      "inputs": [
        {
          "internalType": "address",
          "name": "",
          "type": "address"
        },
        {
          "internalType": "uint256",
          "name": "",
          "type": "uint256"
        }
      ],
      "name": "userSpins",
      "outputs": [
        {
          "internalType": "address",
          "name": "user",
          "type": "address"
        },
        {
          "internalType": "uint256",
          "name": "timestamp",
          "type": "uint256"
        },
        {
          "internalType": "euint8",
          "name": "encryptedPrize",
          "type": "bytes32"
        },
        {
          "internalType": "bool",
          "name": "claimed",
          "type": "bool"
        },
        {
          "internalType": "string",
          "name": "prizeName",
          "type": "string"
        },
        {
          "internalType": "uint256",
          "name": "prizeValue",
          "type": "uint256"
        }
      ],
      "stateMutability": "view",
      "type": "function"
    },
    {
      "inputs": [],
      "name": "withdraw",
      "outputs": [],
      "stateMutability": "nonpayable",
      "type": "function"
    }
  ],
  "bytecode": "0x608060405234801562000010575f80fd5b50336200018e620000b2604080516080810182525f808252602082018190529181018290526060810191909152506040805160808101825273687820221192c5b662b25367f70076a37bc79b6c815273848b0066793bcc60346da1f49049357399b8d595602082015273a02cda4ca3a71d7c46997716f4283aa851c2881291810191909152731364cbbf2cdf5032c47d8226a6f6fbd2afcdacac606082015290565b80517f9e7b61f58c47dc699ac88507c4f5bb9f121c03808c5676a8078fe583e464970080546001600160a01b03199081166001600160a01b039384161790915560208301517f9e7b61f58c47dc699ac88507c4f5bb9f121c03808c5676a8078fe583e46497018054831691841691909117905560408301517f9e7b61f58c47dc699ac88507c4f5bb9f121c03808c5676a8078fe583e46497028054831691841691909117905560608301517f9e7b61f58c47dc699ac88507c4f5bb9f121c03808c5676a8078fe583e46497038054909216921691909117905550565b6001600160a01b038116620001bc57604051631e4fbdf760e01b81525f600482015260240160405180910390fd5b620001c781620002c6565b50600180556040805180820190915260098152685468616e6b20596f7560b81b6020820152620001fa905f602862000315565b60408051808201909152600a81526931303020506f696e747360b01b602082015262000229905f601e62000315565b60408051808201909152600a81526935303020506f696e747360b01b602082015262000258905f601462000315565b6040805180820190915260078152660605c62408aa8960cb1b60208201526200028c9067016345785d8a0000600862000315565b6040805180820190915260078152660605c6a408aa8960cb1b6020820152620002c0906706f05b59d3b20000600262000315565b62000621565b5f80546001600160a01b038381166001600160a01b0319831681178455604051919092169283917f8be0079c531659141344cd1fd0a4f28419497f9722a3daafe3b4186f6b6457e09190a35050565b60648160ff1611156200033b57604051631ddde97960e31b815260040160405180910390fd5b604080516080810182528481526020810184905260ff8316918101919091526001606082018190526002805491820181555f52815160039091027f405787fa12a823e0f2b7631cc41b3ba8828b3321ca811111fa75cd3aa3bb5ace01908190620003a69082620004d1565b50602082015160018083019190915560408301516002928301805460609095015115156101000261ffff1990951660ff909216919091179390931790925554620003f191906200059d565b7f2e9c33723a51c1318a8143fbb9fee366cdb2edc0d5074ea930713625030747d28484846040516200042693929190620005c3565b60405180910390a2505050565b634e487b7160e01b5f52604160045260245ffd5b600181811c908216806200045c57607f821691505b6020821081036200047b57634e487b7160e01b5f52602260045260245ffd5b50919050565b601f821115620004cc57805f5260205f20601f840160051c81016020851015620004a85750805b601f840160051c820191505b81811015620004c9575f8155600101620004b4565b50505b505050565b81516001600160401b03811115620004ed57620004ed62000433565b6200050581620004fe845462000447565b8462000481565b602080601f8311600181146200053b575f8415620005235750858301515b5f19600386901b1c1916600185901b17855562000595565b5f85815260208120601f198616915b828110156200056b578886015182559484019460019091019084016200054a565b50858210156200058957878501515f19600388901b60f8161c191681555b505060018460011b0185555b505050505050565b81810381811115620005bd57634e487b7160e01b5f52601160045260245ffd5b92915050565b606081525f84518060608401525f5b81811015620005f15760208188018101516080868401015201620005d2565b505f608082850101526080601f19601f83011684010191505083602083015260ff83166040830152949350505050565b61173f806200062f5f395ff3fe60806040526004361061011b575f3560e01c8063a1099bf21161009d578063da1f12ab11610062578063da1f12ab1461030f578063e9247e6514610323578063eccb3a4f1461034e578063f2fde38b1461037d578063f3e0e7f21461039c575f80fd5b8063a1099bf214610253578063b6bf65ba1461027f578063c687a01b1461029e578063d13867aa146102ca578063d53cab66146102de575f80fd5b8063656c0ead116100e3578063656c0ead146101c05780636f9fb98a146101f4578063715018a61461020657806383b392961461021a5780638da5cb5b1461022d575f80fd5b806305c8e23f1461011f578063289e144b1461015d5780633ccfd60b146101775780634162fb991461018d5780635bdfd2a9146101ac575b5f80fd5b34801561012a575f80fd5b5061014a61013936600461119e565b60046020525f908152604090205481565b6040519081526020015b60405180910390f35b348015610168575f80fd5b5061014a662386f26fc1000081565b348015610182575f80fd5b5061018b6103bb565b005b348015610198575f80fd5b5061018b6101a73660046111c7565b6103fd565b3480156101b7575f80fd5b5060025461014a565b3480156101cb575f80fd5b5061014a6101da36600461119e565b6001600160a01b03165f9081526003602052604090205490565b3480156101ff575f80fd5b504761014a565b348015610211575f80fd5b5061018b61061e565b61018b610228366004611236565b610631565b348015610238575f80fd5b505f546040516001600160a01b039091168152602001610154565b34801561025e575f80fd5b5061027261026d36600461127e565b6107f5565b60405161015491906112d8565b34801561028a575f80fd5b5061018b610299366004611322565b610921565b3480156102a9575f80fd5b506102bd6102b836600461137b565b610971565b60405161015491906113a3565b3480156102d5575f80fd5b5061014a600a81565b3480156102e9575f80fd5b506102fd6102f836600461137b565b610abf565b60405161015496959493929190611406565b34801561031a575f80fd5b5061271161014a565b34801561032e575f80fd5b5061014a61033d36600461119e565b60056020525f908152604090205481565b348015610359575f80fd5b5061036d61036836600461127e565b610ba9565b604051610154949392919061144d565b348015610388575f80fd5b5061018b61039736600461119e565b610c71565b3480156103a7575f80fd5b5061014a6103b636600461119e565b610cb0565b6103c3610d14565b5f80546040516001600160a01b03909116914780156108fc02929091818181858888f193505050501580156103fa573d5f803e3d5ffd5b50565b610405610d40565b335f90815260036020526040812080548490811061042557610425611480565b5f9182526020909120600690910201600381015490915060ff161561045d57604051630c8d9eab60e31b815260040160405180910390fd5b60025460ff831610610482576040516325ee14af60e21b815260040160405180910390fd5b5f60028360ff168154811061049957610499611480565b905f5260205f2090600302016040518060800160405290815f820180546104bf90611494565b80601f01602080910402602001604051908101604052809291908181526020018280546104eb90611494565b80156105365780601f1061050d57610100808354040283529160200191610536565b820191905f5260205f20905b81548152906001019060200180831161051957829003601f168201915b5050509183525050600182810154602083015260029092015460ff808216604084015261010090910416151560609091015260038401805460ff191690911790558051909150600483019061058b908261152b565b50602081015160058301819055156105cc576020810151604051339180156108fc02915f818181858888f193505050501580156105ca573d5f803e3d5ffd5b505b8051602082015160405133927f7111f10cabb0ceadf178b41419cafb6f2b9e6ee43bedb68fd52bd03472b001c89261060792899291906115eb565b60405180910390a2505061061a60018055565b5050565b610626610d14565b61062f5f610d6a565b565b610639610d40565b662386f26fc1000034146106605760405163cd1c886760e01b815260040160405180910390fd5b61066933610db9565b61068657604051630652f4c560e21b815260040160405180910390fd5b5f6106c68484848080601f0160208091040260200160405190810160405280939291908181526020018383808284375f92019190915250610e1292505050565b90506106d181610e1f565b506106dc8133610e2e565b50335f8181526003602081815260408084208054825160c0810184529687524287850190815287840189815260608901888152855180880190965288865260808a0195865260a08a01899052600180850186559489529590972088516006840290910180546001600160a01b0319166001600160a01b03909216919091178155905192810192909255945160028201559151928201805460ff19169315159390931790925590519192916004820190610795908261152b565b5060a0820151816005015550506107ab33610e40565b6040805182815242602082015233917fd9cb43d92bfc73eded095760ce8a20dfdc2feec2ccb7ece3a582c60b6bb0d18a910160405180910390a250506107f060018055565b505050565b6040805160808101825260608082525f60208301819052928201839052810191909152600254821061083a576040516325ee14af60e21b815260040160405180910390fd5b6002828154811061084d5761084d611480565b905f5260205f2090600302016040518060800160405290815f8201805461087390611494565b80601f016020809104026020016040519081016040528092919081815260200182805461089f90611494565b80156108ea5780601f106108c1576101008083540402835291602001916108ea565b820191905f5260205f20905b8154815290600101906020018083116108cd57829003601f168201915b50505091835250506001820154602082015260029091015460ff808216604084015261010090910416151560609091015292915050565b610929610d14565b61096b84848080601f0160208091040260200160405190810160405280939291908181526020018383808284375f92019190915250869250859150610ec39050565b50505050565b6040805160c0810182525f80825260208083018290528284018290526060808401839052608084015260a083018290526001600160a01b038616825260039052919091208054839081106109c7576109c7611480565b5f9182526020918290206040805160c081018252600690930290910180546001600160a01b03168352600181015493830193909352600283015490820152600382015460ff1615156060820152600482018054919291608084019190610a2c90611494565b80601f0160208091040260200160405190810160405280929190818152602001828054610a5890611494565b8015610aa35780601f10610a7a57610100808354040283529160200191610aa3565b820191905f5260205f20905b815481529060010190602001808311610a8657829003601f168201915b5050505050815260200160058201548152505090505b92915050565b6003602052815f5260405f208181548110610ad8575f80fd5b5f918252602090912060069091020180546001820154600283015460038401546004850180546001600160a01b039095169750929550909360ff90911692909190610b2290611494565b80601f0160208091040260200160405190810160405280929190818152602001828054610b4e90611494565b8015610b995780601f10610b7057610100808354040283529160200191610b99565b820191905f5260205f20905b815481529060010190602001808311610b7c57829003601f168201915b5050505050908060050154905086565b60028181548110610bb8575f80fd5b905f5260205f2090600302015f91509050805f018054610bd790611494565b80601f0160208091040260200160405190810160405280929190818152602001828054610c0390611494565b8015610c4e5780601f10610c2557610100808354040283529160200191610c4e565b820191905f5260205f20905b815481529060010190602001808311610c3157829003601f168201915b50505050600183015460029093015491929160ff80821692506101009091041684565b610c79610d14565b6001600160a01b038116610ca757604051631e4fbdf760e01b81525f60048201526024015b60405180910390fd5b6103fa81610d6a565b5f80610cbf6201518042611627565b6001600160a01b0384165f90815260056020526040902054909150819003610d0b576001600160a01b0383165f90815260046020526040902054610d0490600a611646565b9392505050565b50600a92915050565b5f546001600160a01b0316331461062f5760405163118cdaa760e01b8152336004820152602401610c9e565b600260015403610d6357604051633ee5aeb560e01b815260040160405180910390fd5b6002600155565b5f80546001600160a01b038381166001600160a01b0319831681178455604051919092169283917f8be0079c531659141344cd1fd0a4f28419497f9722a3daafe3b4186f6b6457e09190a35050565b5f80610dc86201518042611627565b6001600160a01b0384165f90815260056020526040902054909150819003610e095750506001600160a01b03165f90815260046020526040902054600a1190565b50600192915050565b5f610d0483836002610fda565b5f610e2a82306110fa565b5090565b5f610e3983836110fa565b5090919050565b5f610e4e6201518042611627565b6001600160a01b0383165f908152600560205260409020549091508114610e97576001600160a01b0382165f908152600460209081526040808320839055600590915290208190555b6001600160a01b0382165f908152600460205260408120805491610eba83611659565b91905055505050565b60648160ff161115610ee857604051631ddde97960e31b815260040160405180910390fd5b604080516080810182528481526020810184905260ff8316918101919091526001606082018190526002805491820181555f52815160039091027f405787fa12a823e0f2b7631cc41b3ba8828b3321ca811111fa75cd3aa3bb5ace01908190610f51908261152b565b50602082015160018083019190915560408301516002928301805460609095015115156101000261ffff1990951660ff909216919091179390931790925554610f9a9190611646565b7f2e9c33723a51c1318a8143fbb9fee366cdb2edc0d5074ea930713625030747d2848484604051610fcd93929190611671565b60405180910390a2505050565b7f9e7b61f58c47dc699ac88507c4f5bb9f121c03808c5676a8078fe583e46497015460405163196d0b9b60e01b81525f917f9e7b61f58c47dc699ac88507c4f5bb9f121c03808c5676a8078fe583e4649700916001600160a01b039091169063196d0b9b9061105390889033908990899060040161169c565b6020604051808303815f875af115801561106f573d5f803e3d5ffd5b505050506040513d601f19601f8201168201806040525081019061109391906116f2565b8154604051630f8e573b60e21b8152600481018390523360248201529193506001600160a01b031690633e395cec906044015f604051808303815f87803b1580156110dc575f80fd5b505af11580156110ee573d5f803e3d5ffd5b50505050509392505050565b5f7f9e7b61f58c47dc699ac88507c4f5bb9f121c03808c5676a8078fe583e46497008054604051635ca4b5b160e11b8152600481018690526001600160a01b03858116602483015292935091169063b9496b62906044015f604051808303815f87803b158015611168575f80fd5b505af115801561117a573d5f803e3d5ffd5b50505050505050565b80356001600160a01b0381168114611199575f80fd5b919050565b5f602082840312156111ae575f80fd5b610d0482611183565b803560ff81168114611199575f80fd5b5f80604083850312156111d8575f80fd5b823591506111e8602084016111b7565b90509250929050565b5f8083601f840112611201575f80fd5b50813567ffffffffffffffff811115611218575f80fd5b60208301915083602082850101111561122f575f80fd5b9250929050565b5f805f60408486031215611248575f80fd5b83359250602084013567ffffffffffffffff811115611265575f80fd5b611271868287016111f1565b9497909650939450505050565b5f6020828403121561128e575f80fd5b5035919050565b5f81518084525f5b818110156112b95760208185018101518683018201520161129d565b505f602082860101526020601f19601f83011685010191505092915050565b602081525f8251608060208401526112f360a0840182611295565b90506020840151604084015260ff60408501511660608401526060840151151560808401528091505092915050565b5f805f8060608587031215611335575f80fd5b843567ffffffffffffffff81111561134b575f80fd5b611357878288016111f1565b90955093505060208501359150611370604086016111b7565b905092959194509250565b5f806040838503121561138c575f80fd5b61139583611183565b946020939093013593505050565b6020815260018060a01b03825116602082015260208201516040820152604082015160608201526060820151151560808201525f608083015160c060a08401526113f060e0840182611295565b905060a084015160c08401528091505092915050565b60018060a01b0387168152856020820152846040820152831515606082015260c060808201525f61143a60c0830185611295565b90508260a0830152979650505050505050565b608081525f61145f6080830187611295565b60208301959095525060ff9290921660408301521515606090910152919050565b634e487b7160e01b5f52603260045260245ffd5b600181811c908216806114a857607f821691505b6020821081036114c657634e487b7160e01b5f52602260045260245ffd5b50919050565b634e487b7160e01b5f52604160045260245ffd5b601f8211156107f057805f5260205f20601f840160051c810160208510156115055750805b601f840160051c820191505b81811015611524575f8155600101611511565b5050505050565b815167ffffffffffffffff811115611545576115456114cc565b611559816115538454611494565b846114e0565b602080601f83116001811461158c575f84156115755750858301515b5f19600386901b1c1916600185901b1785556115e3565b5f85815260208120601f198616915b828110156115ba5788860151825594840194600190910190840161159b565b50858210156115d757878501515f19600388901b60f8161c191681555b505060018460011b0185555b505050505050565b838152606060208201525f6116036060830185611295565b9050826040830152949350505050565b634e487b7160e01b5f52601160045260245ffd5b5f8261164157634e487b7160e01b5f52601260045260245ffd5b500490565b81810381811115610ab957610ab9611613565b5f6001820161166a5761166a611613565b5060010190565b606081525f6116836060830186611295565b905083602083015260ff83166040830152949350505050565b8481526001600160a01b03841660208201526080604082018190525f906116c590830185611295565b9050605483106116e357634e487b7160e01b5f52602160045260245ffd5b82606083015295945050505050565b5f60208284031215611702575f80fd5b505191905056fea264697066735822122016574b4e7a71b57434d7467b57009c80776471bfb5da643d92f874a4bf4a36b064736f6c63430008180033",
  "linkReferences": {},
  "deployedLinkReferences": {}
}