{
  "_format": "hh-sol-artifact-1",
  "contractName": "SpinManager",
  "sourceName": "src/modules/SpinManager.sol",
  "abi": [
    {
      "inputs": [],
      "stateMutability": "nonpayable",
      "type": "constructor"
    },
    {
      "inputs": [
        {
          "internalType": "address",
          "name": "owner",
          "type": "address"
        }
      ],
      "name": "OwnableInvalidOwner",
      "type": "error"
    },
    {
      "inputs": [
        {
          "internalType": "address",
          "name": "account",
          "type": "address"
        }
      ],
      "name": "OwnableUnauthorizedAccount",
      "type": "error"
    },
    {
      "inputs": [],
      "name": "PrizeManagerNotSet",
      "type": "error"
    },
    {
      "inputs": [],
      "name": "Unauthorized",
      "type": "error"
    },
    {
      "anonymous": false,
      "inputs": [
        {
          "indexed": true,
          "internalType": "address",
          "name": "previousOwner",
          "type": "address"
        },
        {
          "indexed": true,
          "internalType": "address",
          "name": "newOwner",
          "type": "address"
        }
      ],
      "name": "OwnershipTransferred",
      "type": "event"
    },
    {
      "anonymous": false,
      "inputs": [
        {
          "indexed": true,
          "internalType": "address",
          "name": "user",
          "type": "address"
        },
        {
          "indexed": false,
          "internalType": "uint256",
          "name": "spinId",
          "type": "uint256"
        },
        {
          "indexed": false,
          "internalType": "uint256",
          "name": "timestamp",
          "type": "uint256"
        },
        {
          "indexed": false,
          "internalType": "uint256",
          "name": "payment",
          "type": "uint256"
        }
      ],
      "name": "SpinExecuted",
      "type": "event"
    },
    {
      "inputs": [],
      "name": "SPIN_COST",
      "outputs": [
        {
          "internalType": "uint256",
          "name": "",
          "type": "uint256"
        }
      ],
      "stateMutability": "view",
      "type": "function"
    },
    {
      "inputs": [
        {
          "internalType": "address",
          "name": "",
          "type": "address"
        }
      ],
      "name": "authorized",
      "outputs": [
        {
          "internalType": "bool",
          "name": "",
          "type": "bool"
        }
      ],
      "stateMutability": "view",
      "type": "function"
    },
    {
      "inputs": [
        {
          "internalType": "euint8",
          "name": "randomValue",
          "type": "bytes32"
        }
      ],
      "name": "calculateSpinResult",
      "outputs": [
        {
          "internalType": "euint8",
          "name": "",
          "type": "bytes32"
        }
      ],
      "stateMutability": "nonpayable",
      "type": "function"
    },
    {
      "inputs": [
        {
          "internalType": "address",
          "name": "user",
          "type": "address"
        },
        {
          "internalType": "externalEuint8",
          "name": "encryptedRandom",
          "type": "bytes32"
        },
        {
          "internalType": "bytes",
          "name": "proof",
          "type": "bytes"
        }
      ],
      "name": "executeSpin",
      "outputs": [
        {
          "internalType": "euint8",
          "name": "result",
          "type": "bytes32"
        }
      ],
      "stateMutability": "nonpayable",
      "type": "function"
    },
    {
      "inputs": [],
      "name": "getSpinCost",
      "outputs": [
        {
          "internalType": "uint256",
          "name": "",
          "type": "uint256"
        }
      ],
      "stateMutability": "pure",
      "type": "function"
    },
    {
      "inputs": [],
      "name": "owner",
      "outputs": [
        {
          "internalType": "address",
          "name": "",
          "type": "address"
        }
      ],
      "stateMutability": "view",
      "type": "function"
    },
    {
      "inputs": [],
      "name": "prizeManager",
      "outputs": [
        {
          "internalType": "contract IPrizeManager",
          "name": "",
          "type": "address"
        }
      ],
      "stateMutability": "view",
      "type": "function"
    },
    {
      "inputs": [],
      "name": "protocolId",
      "outputs": [
        {
          "internalType": "uint256",
          "name": "",
          "type": "uint256"
        }
      ],
      "stateMutability": "pure",
      "type": "function"
    },
    {
      "inputs": [],
      "name": "renounceOwnership",
      "outputs": [],
      "stateMutability": "nonpayable",
      "type": "function"
    },
    {
      "inputs": [
        {
          "internalType": "address",
          "name": "account",
          "type": "address"
        },
        {
          "internalType": "bool",
          "name": "status",
          "type": "bool"
        }
      ],
      "name": "setAuthorization",
      "outputs": [],
      "stateMutability": "nonpayable",
      "type": "function"
    },
    {
      "inputs": [
        {
          "internalType": "address",
          "name": "_prizeManager",
          "type": "address"
        }
      ],
      "name": "setPrizeManager",
      "outputs": [],
      "stateMutability": "nonpayable",
      "type": "function"
    },
    {
      "inputs": [
        {
          "internalType": "address",
          "name": "newOwner",
          "type": "address"
        }
      ],
      "name": "transferOwnership",
      "outputs": [],
      "stateMutability": "nonpayable",
      "type": "function"
    }
  ],
  "bytecode": "0x608060405234801561000f575f5ffd5b503361018b6100af604080516080810182525f808252602082018190529181018290526060810191909152506040805160808101825273687820221192c5b662b25367f70076a37bc79b6c815273848b0066793bcc60346da1f49049357399b8d595602082015273a02cda4ca3a71d7c46997716f4283aa851c2881291810191909152731364cbbf2cdf5032c47d8226a6f6fbd2afcdacac606082015290565b80517f9e7b61f58c47dc699ac88507c4f5bb9f121c03808c5676a8078fe583e464970080546001600160a01b03199081166001600160a01b039384161790915560208301517f9e7b61f58c47dc699ac88507c4f5bb9f121c03808c5676a8078fe583e46497018054831691841691909117905560408301517f9e7b61f58c47dc699ac88507c4f5bb9f121c03808c5676a8078fe583e46497028054831691841691909117905560608301517f9e7b61f58c47dc699ac88507c4f5bb9f121c03808c5676a8078fe583e46497038054909216921691909117905550565b6001600160a01b0381166101b857604051631e4fbdf760e01b81525f600482015260240160405180910390fd5b6101c1816101c7565b50610216565b5f80546001600160a01b038381166001600160a01b0319831681178455604051919092169283917f8be0079c531659141344cd1fd0a4f28419497f9722a3daafe3b4186f6b6457e09190a35050565b610dcf806102235f395ff3fe608060405234801561000f575f5ffd5b50600436106100b1575f3560e01c8063d414d2ac1161006e578063d414d2ac14610160578063da1f12ab14610173578063e65adca11461017b578063eecea00014610188578063f2fde38b1461019b578063f6699315146101ae575f5ffd5b806326fd6c1a146100b5578063289e144b146100db5780633d6f4369146100e9578063715018a6146101145780638da5cb5b1461011e578063b91816111461012e575b5f5ffd5b6100c86100c33660046109f3565b6101c1565b6040519081526020015b60405180910390f35b6100c866b1a2bc2ec5000081565b6001546100fc906001600160a01b031681565b6040516001600160a01b0390911681526020016100d2565b61011c610352565b005b5f546001600160a01b03166100fc565b61015061013c366004610a25565b60026020525f908152604090205460ff1681565b60405190151581526020016100d2565b6100c861016e366004610a3e565b610365565b6127116100c8565b66b1a2bc2ec500006100c8565b61011c610196366004610ace565b610485565b61011c6101a9366004610a25565b6104b7565b61011c6101bc366004610a25565b6104f9565b6001545f906001600160a01b03166101ec5760405163072f55c560e31b815260040160405180910390fd5b5f6101f8836064610523565b90505f60015f9054906101000a90046001600160a01b03166001600160a01b0316635bdfd2a96040518163ffffffff1660e01b8152600401602060405180830381865afa15801561024b573d5f5f3e3d5ffd5b505050506040513d601f19601f8201168201806040525081019061026f9190610b03565b90505f61027b5f61054b565b90505f805b8381101561034757600154604051635084cdf960e11b8152600481018390525f916001600160a01b03169063a1099bf2906024015f60405180830381865afa1580156102ce573d5f5f3e3d5ffd5b505050506040513d5f823e601f3d908101601f191682016040526102f59190810190610bb1565b905080608001511561033e5760608101516103109084610cb0565b92505f610325876103208661054b565b61055a565b905061033a816103348561054b565b87610588565b9450505b50600101610280565b509095945050505050565b61035a61059e565b6103635f6105ca565b565b335f9081526002602052604081205460ff1615801561038e57505f546001600160a01b03163314155b156103ab576040516282b42960e81b815260040160405180910390fd5b6001546001600160a01b03166103d45760405163072f55c560e31b815260040160405180910390fd5b5f6104148585858080601f0160208091040260200160405190810160405280939291908181526020018383808284375f9201919091525061061992505050565b905061041f816101c1565b915061042a82610626565b50604080515f815242602082015266b1a2bc2ec500008183015290516001600160a01b038816917f0f4837f2162c04c3fef8ed28dac7b633ec75fb9bd3536531aa72e6e6e07faf08919081900360600190a250949350505050565b61048d61059e565b6001600160a01b03919091165f908152600260205260409020805460ff1916911515919091179055565b6104bf61059e565b6001600160a01b0381166104ed57604051631e4fbdf760e01b81525f60048201526024015b60405180910390fd5b6104f6816105ca565b50565b61050161059e565b600180546001600160a01b0319166001600160a01b0392909216919091179055565b5f82610535576105325f61054b565b92505b6105428360ff8416610635565b90505b92915050565b5f6105458260ff1660026106db565b5f8261056c576105695f61054b565b92505b8161057d5761057a5f61054b565b91505b61054283835f610772565b5f610594848484610827565b90505b9392505050565b5f546001600160a01b031633146103635760405163118cdaa760e01b81523360048201526024016104e4565b5f80546001600160a01b038381166001600160a01b0319831681178455604051919092169283917f8be0079c531659141344cd1fd0a4f28419497f9722a3daafe3b4186f6b6457e09190a35050565b5f61054283836002610883565b5f610631823061097d565b5090565b5f516020610d5a5f395f51905f52546040516367a68c5560e11b81526004810184905260248101839052600160f81b604482018190525f9290915f516020610d7a5f395f51905f52916001600160a01b03169063cf4d18aa906064015b6020604051808303815f875af11580156106ae573d5f5f3e3d5ffd5b505050506040513d601f19601f820116820180604052508101906106d29190610b03565b95945050505050565b5f516020610d5a5f395f51905f5254604051639cd07acb60e01b81525f915f516020610d7a5f395f51905f52916001600160a01b0390911690639cd07acb9061072a9087908790600401610cf5565b6020604051808303815f875af1158015610746573d5f5f3e3d5ffd5b505050506040513d601f19601f8201168201806040525081019061076a9190610b03565b949350505050565b5f5f82156107855750600160f81b610788565b505f5b5f5f516020610d7a5f395f51905f526001810154604051637210768160e01b815260048101899052602481018890526001600160f81b0319851660448201529192506001600160a01b0316906372107681906064016020604051808303815f875af11580156107f9573d5f5f3e3d5ffd5b505050506040513d601f19601f8201168201806040525081019061081d9190610b03565b9695505050505050565b5f516020610d5a5f395f51905f5254604051637702dcff60e01b81526004810185905260248101849052604481018390525f915f516020610d7a5f395f51905f52916001600160a01b0390911690637702dcff90606401610692565b5f516020610d5a5f395f51905f525460405163196d0b9b60e01b81525f915f516020610d7a5f395f51905f52916001600160a01b039091169063196d0b9b906108d6908890339089908990600401610d09565b6020604051808303815f875af11580156108f2573d5f5f3e3d5ffd5b505050506040513d601f19601f820116820180604052508101906109169190610b03565b8154604051630f8e573b60e21b8152600481018390523360248201529193506001600160a01b031690633e395cec906044015f604051808303815f87803b15801561095f575f5ffd5b505af1158015610971573d5f5f3e3d5ffd5b50505050509392505050565b5f5f516020610d7a5f395f51905f528054604051635ca4b5b160e11b8152600481018690526001600160a01b03858116602483015292935091169063b9496b62906044015f604051808303815f87803b1580156109d8575f5ffd5b505af11580156109ea573d5f5f3e3d5ffd5b50505050505050565b5f60208284031215610a03575f5ffd5b5035919050565b80356001600160a01b0381168114610a20575f5ffd5b919050565b5f60208284031215610a35575f5ffd5b61054282610a0a565b5f5f5f5f60608587031215610a51575f5ffd5b610a5a85610a0a565b935060208501359250604085013567ffffffffffffffff811115610a7c575f5ffd5b8501601f81018713610a8c575f5ffd5b803567ffffffffffffffff811115610aa2575f5ffd5b876020828401011115610ab3575f5ffd5b949793965060200194505050565b80151581146104f6575f5ffd5b5f5f60408385031215610adf575f5ffd5b610ae883610a0a565b91506020830135610af881610ac1565b809150509250929050565b5f60208284031215610b13575f5ffd5b5051919050565b634e487b7160e01b5f52604160045260245ffd5b60405160a0810167ffffffffffffffff81118282101715610b5157610b51610b1a565b60405290565b604051601f8201601f1916810167ffffffffffffffff81118282101715610b8057610b80610b1a565b604052919050565b805160028110610a20575f5ffd5b805160ff81168114610a20575f5ffd5b8051610a2081610ac1565b5f60208284031215610bc1575f5ffd5b815167ffffffffffffffff811115610bd7575f5ffd5b820160a08185031215610be8575f5ffd5b610bf0610b2e565b815167ffffffffffffffff811115610c06575f5ffd5b8201601f81018613610c16575f5ffd5b805167ffffffffffffffff811115610c3057610c30610b1a565b610c43601f8201601f1916602001610b57565b818152876020838501011115610c57575f5ffd5b8160208401602083015e5f60209282018301528352838101519083015250610c8160408301610b88565b6040820152610c9260608301610b96565b6060820152610ca360808301610ba6565b6080820152949350505050565b60ff818116838216019081111561054557634e487b7160e01b5f52601160045260245ffd5b60548110610cf157634e487b7160e01b5f52602160045260245ffd5b9052565b828152604081016105976020830184610cd5565b84815260018060a01b0384166020820152608060408201525f8351806080840152806020860160a085015e5f60a0828501015260a0601f19601f8301168401019150506106d26060830184610cd556fe9e7b61f58c47dc699ac88507c4f5bb9f121c03808c5676a8078fe583e46497019e7b61f58c47dc699ac88507c4f5bb9f121c03808c5676a8078fe583e4649700a264697066735822122000bb0085fe42645e863246a571fed9e6792cf30b8b7d3c3b50241ddaa610dc4c64736f6c634300081c0033",
  "linkReferences": {},
  "deployedLinkReferences": {}
}