{
  "_format": "hh-sol-artifact-1",
  "contractName": "UserRecords",
  "sourceName": "src/modules/UserRecords.sol",
  "abi": [
    {
      "inputs": [],
      "stateMutability": "nonpayable",
      "type": "constructor"
    },
    {
      "inputs": [],
      "name": "DailyLimitExceeded",
      "type": "error"
    },
    {
      "inputs": [],
      "name": "InvalidSpinId",
      "type": "error"
    },
    {
      "inputs": [
        {
          "internalType": "address",
          "name": "owner",
          "type": "address"
        }
      ],
      "name": "OwnableInvalidOwner",
      "type": "error"
    },
    {
      "inputs": [
        {
          "internalType": "address",
          "name": "account",
          "type": "address"
        }
      ],
      "name": "OwnableUnauthorizedAccount",
      "type": "error"
    },
    {
      "inputs": [],
      "name": "Unauthorized",
      "type": "error"
    },
    {
      "anonymous": false,
      "inputs": [
        {
          "indexed": true,
          "internalType": "address",
          "name": "previousOwner",
          "type": "address"
        },
        {
          "indexed": true,
          "internalType": "address",
          "name": "newOwner",
          "type": "address"
        }
      ],
      "name": "OwnershipTransferred",
      "type": "event"
    },
    {
      "anonymous": false,
      "inputs": [
        {
          "indexed": true,
          "internalType": "address",
          "name": "user",
          "type": "address"
        },
        {
          "indexed": false,
          "internalType": "uint256",
          "name": "spinId",
          "type": "uint256"
        },
        {
          "indexed": false,
          "internalType": "string",
          "name": "prizeName",
          "type": "string"
        },
        {
          "indexed": false,
          "internalType": "uint256",
          "name": "prizeValue",
          "type": "uint256"
        }
      ],
      "name": "PrizeClaimedRecord",
      "type": "event"
    },
    {
      "anonymous": false,
      "inputs": [
        {
          "indexed": true,
          "internalType": "address",
          "name": "user",
          "type": "address"
        },
        {
          "indexed": false,
          "internalType": "uint256",
          "name": "spinId",
          "type": "uint256"
        },
        {
          "indexed": false,
          "internalType": "uint256",
          "name": "timestamp",
          "type": "uint256"
        }
      ],
      "name": "SpinRecorded",
      "type": "event"
    },
    {
      "inputs": [],
      "name": "MAX_DAILY_SPINS",
      "outputs": [
        {
          "internalType": "uint256",
          "name": "",
          "type": "uint256"
        }
      ],
      "stateMutability": "view",
      "type": "function"
    },
    {
      "inputs": [
        {
          "internalType": "address",
          "name": "",
          "type": "address"
        }
      ],
      "name": "authorized",
      "outputs": [
        {
          "internalType": "bool",
          "name": "",
          "type": "bool"
        }
      ],
      "stateMutability": "view",
      "type": "function"
    },
    {
      "inputs": [
        {
          "internalType": "address",
          "name": "user",
          "type": "address"
        }
      ],
      "name": "checkDailyLimit",
      "outputs": [
        {
          "internalType": "bool",
          "name": "canSpin",
          "type": "bool"
        }
      ],
      "stateMutability": "view",
      "type": "function"
    },
    {
      "inputs": [
        {
          "internalType": "address",
          "name": "user",
          "type": "address"
        }
      ],
      "name": "getDailySpinCount",
      "outputs": [
        {
          "internalType": "uint256",
          "name": "",
          "type": "uint256"
        }
      ],
      "stateMutability": "view",
      "type": "function"
    },
    {
      "inputs": [],
      "name": "getMaxDailySpins",
      "outputs": [
        {
          "internalType": "uint256",
          "name": "",
          "type": "uint256"
        }
      ],
      "stateMutability": "pure",
      "type": "function"
    },
    {
      "inputs": [
        {
          "internalType": "address",
          "name": "user",
          "type": "address"
        }
      ],
      "name": "getRemainingSpins",
      "outputs": [
        {
          "internalType": "uint256",
          "name": "",
          "type": "uint256"
        }
      ],
      "stateMutability": "view",
      "type": "function"
    },
    {
      "inputs": [
        {
          "internalType": "address",
          "name": "user",
          "type": "address"
        },
        {
          "internalType": "uint256",
          "name": "spinId",
          "type": "uint256"
        }
      ],
      "name": "getSpinRecord",
      "outputs": [
        {
          "components": [
            {
              "internalType": "uint256",
              "name": "timestamp",
              "type": "uint256"
            },
            {
              "internalType": "euint8",
              "name": "result",
              "type": "bytes32"
            },
            {
              "internalType": "bool",
              "name": "claimed",
              "type": "bool"
            },
            {
              "internalType": "uint256",
              "name": "prizeValue",
              "type": "uint256"
            },
            {
              "internalType": "enum IUserRecords.PrizeType",
              "name": "prizeType",
              "type": "uint8"
            },
            {
              "internalType": "string",
              "name": "prizeName",
              "type": "string"
            }
          ],
          "internalType": "struct IUserRecords.SpinRecord",
          "name": "",
          "type": "tuple"
        }
      ],
      "stateMutability": "view",
      "type": "function"
    },
    {
      "inputs": [
        {
          "internalType": "address",
          "name": "user",
          "type": "address"
        }
      ],
      "name": "getUserSpinCount",
      "outputs": [
        {
          "internalType": "uint256",
          "name": "",
          "type": "uint256"
        }
      ],
      "stateMutability": "view",
      "type": "function"
    },
    {
      "inputs": [
        {
          "internalType": "address",
          "name": "user",
          "type": "address"
        }
      ],
      "name": "incrementDailyCount",
      "outputs": [],
      "stateMutability": "nonpayable",
      "type": "function"
    },
    {
      "inputs": [],
      "name": "owner",
      "outputs": [
        {
          "internalType": "address",
          "name": "",
          "type": "address"
        }
      ],
      "stateMutability": "view",
      "type": "function"
    },
    {
      "inputs": [
        {
          "internalType": "address",
          "name": "user",
          "type": "address"
        },
        {
          "internalType": "euint8",
          "name": "result",
          "type": "bytes32"
        }
      ],
      "name": "recordSpin",
      "outputs": [
        {
          "internalType": "uint256",
          "name": "spinId",
          "type": "uint256"
        }
      ],
      "stateMutability": "nonpayable",
      "type": "function"
    },
    {
      "inputs": [],
      "name": "renounceOwnership",
      "outputs": [],
      "stateMutability": "nonpayable",
      "type": "function"
    },
    {
      "inputs": [
        {
          "internalType": "address",
          "name": "account",
          "type": "address"
        },
        {
          "internalType": "bool",
          "name": "status",
          "type": "bool"
        }
      ],
      "name": "setAuthorization",
      "outputs": [],
      "stateMutability": "nonpayable",
      "type": "function"
    },
    {
      "inputs": [
        {
          "internalType": "address",
          "name": "newOwner",
          "type": "address"
        }
      ],
      "name": "transferOwnership",
      "outputs": [],
      "stateMutability": "nonpayable",
      "type": "function"
    },
    {
      "inputs": [
        {
          "internalType": "address",
          "name": "user",
          "type": "address"
        },
        {
          "internalType": "uint256",
          "name": "spinId",
          "type": "uint256"
        },
        {
          "internalType": "uint256",
          "name": "prizeValue",
          "type": "uint256"
        },
        {
          "internalType": "enum IUserRecords.PrizeType",
          "name": "prizeType",
          "type": "uint8"
        },
        {
          "internalType": "string",
          "name": "prizeName",
          "type": "string"
        }
      ],
      "name": "updateSpinClaim",
      "outputs": [],
      "stateMutability": "nonpayable",
      "type": "function"
    }
  ],
  "bytecode": "0x6080604052348015600e575f5ffd5b503380603357604051631e4fbdf760e01b81525f600482015260240160405180910390fd5b603a81603f565b50608e565b5f80546001600160a01b038381166001600160a01b0319831681178455604051919092169283917f8be0079c531659141344cd1fd0a4f28419497f9722a3daafe3b4186f6b6457e09190a35050565b610ec18061009b5f395ff3fe608060405234801561000f575f5ffd5b50600436106100f0575f3560e01c8063c9ba6b5011610093578063e816bbb611610063578063e816bbb614610200578063eecea00014610213578063f2fde38b14610226578063f3e0e7f214610239575f5ffd5b8063c9ba6b50146101be578063d13867aa146101de578063dd5af4a2146101e6578063e5529dff146101ed575f5ffd5b80638da5cb5b116100ce5780638da5cb5b1461014c5780639c6b85bb14610166578063ae9d906414610189578063b91816111461019c575f5ffd5b80630a6ebad7146100f4578063656c0ead14610109578063715018a614610144575b5f5ffd5b6101076101023660046109f8565b61024c565b005b6101316101173660046109f8565b6001600160a01b03165f9081526001602052604090205490565b6040519081526020015b60405180910390f35b61010761034d565b5f546040516001600160a01b03909116815260200161013b565b6101796101743660046109f8565b610360565b604051901515815260200161013b565b610107610197366004610a11565b6103b9565b6101796101aa3660046109f8565b60046020525f908152604090205460ff1681565b6101d16101cc366004610ab7565b61050e565b60405161013b9190610b21565b610131600a81565b600a610131565b6101316101fb366004610ab7565b610695565b61013161020e3660046109f8565b6107f1565b610107610221366004610b95565b610846565b6101076102343660046109f8565b610878565b6101316102473660046109f8565b6108ba565b335f9081526004602052604090205460ff1615801561027557505f546001600160a01b03163314155b15610292576040516282b42960e81b815260040160405180910390fd5b5f6102a06201518042610be2565b6001600160a01b0383165f9081526003602052604090205490915081146102e9576001600160a01b0382165f908152600260209081526040808320839055600390915290208190555b6001600160a01b0382165f90815260026020526040902054600a1161032157604051630652f4c560e21b815260040160405180910390fd5b6001600160a01b0382165f90815260026020526040812080549161034483610c01565b91905055505050565b61035561091e565b61035e5f61094a565b565b5f8061036f6201518042610be2565b6001600160a01b0384165f908152600360205260409020549091508190036103b05750506001600160a01b03165f90815260026020526040902054600a1190565b50600192915050565b335f9081526004602052604090205460ff161580156103e257505f546001600160a01b03163314155b156103ff576040516282b42960e81b815260040160405180910390fd5b6001600160a01b0386165f9081526001602052604090205485106104365760405163562bbd9f60e11b815260040160405180910390fd5b6001600160a01b0386165f90815260016020526040812080548790811061045f5761045f610c19565b5f9182526020909120600690910201600281018054600160ff199182168117909255600383018890556004830180549394508793909291169083818111156104a9576104a9610adf565b0217905550600581016104bd838583610cc5565b50866001600160a01b03167f40366eacb2e1a97ce5d3560350f1e6bc284d555a9cbbb1407e5cabbb69e09d62878585896040516104fd9493929190610d7f565b60405180910390a250505050505050565b610516610999565b6001600160a01b0383165f90815260016020526040902054821061054d5760405163562bbd9f60e11b815260040160405180910390fd5b6001600160a01b0383165f90815260016020526040902080548390811061057657610576610c19565b905f5260205f2090600602016040518060c00160405290815f820154815260200160018201548152602001600282015f9054906101000a900460ff1615151515815260200160038201548152602001600482015f9054906101000a900460ff1660018111156105e7576105e7610adf565b60018111156105f8576105f8610adf565b815260200160058201805461060c90610c41565b80601f016020809104026020016040519081016040528092919081815260200182805461063890610c41565b80156106835780601f1061065a57610100808354040283529160200191610683565b820191905f5260205f20905b81548152906001019060200180831161066657829003601f168201915b50505050508152505090505b92915050565b335f9081526004602052604081205460ff161580156106be57505f546001600160a01b03163314155b156106db576040516282b42960e81b815260040160405180910390fd5b506001600160a01b0382165f9081526001602081815260408084208054825160c08101845242815280850188815281850188815260608301898152608084018a81528751808a019098528a885260a0850197909752848901865594895295909720815160068402909101908155965187870155935160028701805491151560ff1992831617905591516003870155915160048601805493969495919390921690838181111561078c5761078c610adf565b021790555060a082015160058201906107a59082610dbd565b5050604080518381524260208201526001600160a01b03861692507fbd55cfe92437d56081b740a792f62f8cacc6e79e382ee91798230a4d9ab1190c910160405180910390a292915050565b5f806108006201518042610be2565b6001600160a01b0384165f9081526003602052604090205490915081900361083e5750506001600160a01b03165f9081526002602052604090205490565b505f92915050565b61084e61091e565b6001600160a01b03919091165f908152600460205260409020805460ff1916911515919091179055565b61088061091e565b6001600160a01b0381166108ae57604051631e4fbdf760e01b81525f60048201526024015b60405180910390fd5b6108b78161094a565b50565b5f806108c96201518042610be2565b6001600160a01b0384165f90815260036020526040902054909150819003610915576001600160a01b0383165f9081526002602052604090205461090e90600a610e78565b9392505050565b50600a92915050565b5f546001600160a01b0316331461035e5760405163118cdaa760e01b81523360048201526024016108a5565b5f80546001600160a01b038381166001600160a01b0319831681178455604051919092169283917f8be0079c531659141344cd1fd0a4f28419497f9722a3daafe3b4186f6b6457e09190a35050565b6040518060c001604052805f81526020015f81526020015f151581526020015f81526020015f60018111156109d0576109d0610adf565b8152602001606081525090565b80356001600160a01b03811681146109f3575f5ffd5b919050565b5f60208284031215610a08575f5ffd5b61090e826109dd565b5f5f5f5f5f5f60a08789031215610a26575f5ffd5b610a2f876109dd565b95506020870135945060408701359350606087013560028110610a50575f5ffd5b9250608087013567ffffffffffffffff811115610a6b575f5ffd5b8701601f81018913610a7b575f5ffd5b803567ffffffffffffffff811115610a91575f5ffd5b896020828401011115610aa2575f5ffd5b60208201935080925050509295509295509295565b5f5f60408385031215610ac8575f5ffd5b610ad1836109dd565b946020939093013593505050565b634e487b7160e01b5f52602160045260245ffd5b5f81518084528060208401602086015e5f602082860101526020601f19601f83011685010191505092915050565b602081528151602082015260208201516040820152604082015115156060820152606082015160808201525f608083015160028110610b6e57634e487b7160e01b5f52602160045260245ffd5b8060a08401525060a083015160c080840152610b8d60e0840182610af3565b949350505050565b5f5f60408385031215610ba6575f5ffd5b610baf836109dd565b915060208301358015158114610bc3575f5ffd5b809150509250929050565b634e487b7160e01b5f52601160045260245ffd5b5f82610bfc57634e487b7160e01b5f52601260045260245ffd5b500490565b5f60018201610c1257610c12610bce565b5060010190565b634e487b7160e01b5f52603260045260245ffd5b634e487b7160e01b5f52604160045260245ffd5b600181811c90821680610c5557607f821691505b602082108103610c7357634e487b7160e01b5f52602260045260245ffd5b50919050565b601f821115610cc057805f5260205f20601f840160051c81016020851015610c9e5750805b601f840160051c820191505b81811015610cbd575f8155600101610caa565b50505b505050565b67ffffffffffffffff831115610cdd57610cdd610c2d565b610cf183610ceb8354610c41565b83610c79565b5f601f841160018114610d22575f8515610d0b5750838201355b5f19600387901b1c1916600186901b178355610cbd565b5f83815260208120601f198716915b82811015610d515786850135825560209485019460019092019101610d31565b5086821015610d6d575f1960f88860031b161c19848701351681555b505060018560011b0183555050505050565b84815260606020820152826060820152828460808301375f608084830101525f6080601f19601f860116830101905082604083015295945050505050565b815167ffffffffffffffff811115610dd757610dd7610c2d565b610deb81610de58454610c41565b84610c79565b6020601f821160018114610e1d575f8315610e065750848201515b5f19600385901b1c1916600184901b178455610cbd565b5f84815260208120601f198516915b82811015610e4c5787850151825560209485019460019092019101610e2c565b5084821015610e6957868401515f19600387901b60f8161c191681555b50505050600190811b01905550565b8181038181111561068f5761068f610bce56fea264697066735822122009524be2c78329924eb743bb45853cf30fc9256cd7e039ae22f57379a409492864736f6c634300081c0033",
  "linkReferences": {},
  "deployedLinkReferences": {}
}